:10000000F8FF00201104000029270000791E0000DD
:1000100029270000292700002927000029270000A0
:100020002927000029270000292700002927000090
:100030002927000029270000771E0000751E0000F8
:100040002721000029270000292700002927000078
:10005000FF20000029270000292700002927000091
:100060002927000029270000292700002927000050
:100070002927000029270000292700002927000040
:100080002927000029270000292700002927000030
:100090002927000029270000292700002927000020
:1000A0002927000029270000292700002927000010
:1000B0002927000029270000292700002927000000
:1000C00029270000292700002927000029270000F0
:1000D00029270000292700002927000029270000E0
:1000E00029270000292700002927000029270000D0
:1000F0002927000029270000292700008D1D000066
:1001000029270000292700002927000029270000AF
:10011000292700002927000029270000292700009F
:10012000292700002927000029270000292700008F
:100130002927000029270000A1200000A32000009B
:10014000292700002927000029270000292700006F
:10015000CB1D0000B11D0000FB1F0000292700007F
:10016000292700002927000029270000292700004F
:10017000292700002927000029270000292700003F
:10018000292700002927000029270000292700002F
:10019000292700002927000029270000292700001F
:1001A000BB1F000049210000851E00002927000018
:1001B00029270000292700002927000029270000FF
:1001C00029270000292700002927000029270000EF
:1001D00029270000292700002927000029270000DF
:1001E00029270000292700002927000029270000CF
:10040000FFFFFFFFFFFFFFFFFFFFFFFFFEFFFFFFFD
:1004100062B64FF000004FF000014FF000024FF0C5
:1004200000034FF000044FF000054FF000064FF0BE
:1004300000074FF000084FF000094FF0000A4FF09E
:10044000000B4FF0000C00F0BFFAFEE770B504009F
:100450000D0016003068012802D0022805D00AE0FD
:100460002000C0B27168884705E0B0680470B068C9
:10047000401CB060FFE72868401C286070BD2DE973
:10048000F04704005FF0000A5046A1465FF0000A02
:1004900089F800A019F10109002A1FD0D1F800A0A5
:1004A0005546002D05D15FF0300A89F800A0401CA8
:1004B00038E0002D36D095FBF3FA564603FB165A6A
:1004C0005746002F02D5FF43313700E03037350063
:1004D00089F8007019F10109401CEAE7D1F800A081
:1004E000D446BCF1000F05D15FF0300A89F800A0B6
:1004F000401C17E0BCF1000F14D0BCFBF3FAD64649
:1005000003FB1ECAD046B8F10A0F02D218F1300818
:1005100001E018F13708F44689F8008019F1010963
:10052000401CE7E7BDE8F0872DE9F04104000D002D
:1005300016001F00A046A84507DA3A003100302017
:10054000FFF784FF18F10108F5E7BDE8F0812DE918
:10055000F04104000D0016001F00A046A84507DA70
:100560003A0031002020FFF771FF18F10108F5E78C
:10057000BDE8F0812DE9F24F92B004001500002093
:100580000090129883469BF800000590002800F028
:10059000F2810598252813D005980A2805D0220055
:1005A00000A90598FFF752FF09E0220000A90D20DD
:1005B000FFF74CFF220000A90A20FFF747FFD7E111
:1005C00000208146002003900398002822D11BF1CF
:1005D000010B9BF8000020280ED0232812D02B28D6
:1005E00007D02D2802D0302809D00EE059F001099B
:1005F000EAE759F00209E7E759F00409E4E759F09E
:100600000809E1E759F01009DEE7BBF1010B012011
:100610000390D9E700208246002003900398002829
:1006200013D11BF1010B9BF800000590303809280D
:1006300006D80A20059900FB0A10B0F1300AEDE750
:10064000BBF1010B01200390E8E71BF1010B9BF8C4
:1006500000002E2811D100200390039800280ED10D
:100660001BF1010B9BF800003038092800D8F4E793
:10067000BBF1010B01200390EFE7BBF1010B1BF174
:10068000010B9BF800004C2806D0682802D06C288B
:1006900001D002E003E002E001E0BBF1010B1BF13D
:1006A000010B9BF800000590582875D0622800F0D7
:1006B000D580632800F01D81642813D0692811D0EB
:1006C0006E2800F049816F2800F0BD80702800F08E
:1006D000D080732800F01681752800F0D580782826
:1006E0005AD040E1286806902D1D0A23012206A950
:1006F00009A8FFF7C4FE070009A8381806000698E5
:10070000002803D52D2002907F1C0FE0484680076B
:1007100003D52B2002907F1C08E04846400703D5F4
:10072000202002907F1C01E0002002900020049015
:100730004846000711D50298002804D0220000A9DD
:100740000298FFF783FE01200490230000AA51467F
:100750003800FFF7E9FE574612E04846C0070FD4BD
:10076000230000AA51463800FFF7F1FE0298002846
:1007700004D0220000A90298FFF768FE012004902F
:100780000498002807D10298002804D0220000A96C
:100790000298FFF75BFE98E0286801902D1D10235A
:1007A000002201A909A8FFF76AFE070009A8381866
:1007B0000600002004904846000716D54846C006AB
:1007C0000BD5220000A93020FFF740FE220000A92F
:1007D0007820FFF73BFE01200490230000AA514639
:1007E0003800FFF7A1FE57461BE04846C00718D463
:1007F0004846C00600D5BF1C230000AA5146380059
:10080000FFF7A5FE4846C0060BD5220000A9302000
:10081000FFF71CFE220000A97820FFF717FE012039
:1008200004904846C0060DD5049800280AD122003D
:1008300000A93020FFF70AFE220000A97820FFF768
:1008400005FEBF1C41E0286801902D1D08230022F1
:1008500001A909A8FFF713FE07001FE0286801900F
:100860002D1D0223002201A909A8FFF708FE070099
:1008700014E0286801902D1D1023002201A909A869
:10088000FFF7FDFD070009E0286801902D1D0A23F0
:10089000002201A909A8FFF7F2FD070009A83818EE
:1008A00006004846000707D5230000AA5146380035
:1008B000FFF73AFE574608E04846C00705D4230034
:1008C00000AA51463800FFF742FE3078002806D0D3
:1008D000220000A93078FFF7B9FD761EF5E74846FB
:1008E000C00705D5230000AA51463800FFF72FFEA8
:1008F0003EE0287807902D1D220000A90798FFF7F9
:10090000A5FD35E0286880462D1DB8F1000F22D0E6
:10091000404600F049F807004846C00705D42300C8
:1009200000AA51463800FFF712FE98F80000002890
:1009300008D0220000A998F80000FFF787FD18F101
:100940000108F2E74846C00705D5230000AA514632
:100950003800FFF7FCFD0BE0286808902D1D089873
:100960000099016004E0220000A90598FFF76EFDE0
:100970001BF1010B07E6009813B0BDE8F08F0EB431
:100980007EB50400012000900648019007A80500EC
:100990002A00210000A8FFF7EDFD060030007EBC14
:1009A0005DF810FB2929000001000A000023002A3D
:1009B00001D1002007E01000421C0078002801D07F
:1009C0005B1CF8E71800704780B500F08DFA00F066
:1009D000A7FA00F005FBDFF8E803FFF7D0FFDFF828
:1009E000E4030068DFF8E0134979491CB0FBF1F03B
:1009F0000090DFF8D0030068DFF8CC130979491CB8
:100A0000B0FBF1F3DFF8BC030068DFF8BC13C97872
:100A1000491CB0FBF1F2DFF8AC030168DFF8AC036E
:100A2000FFF7ADFFDFF8A8030078400703D5DFF834
:100A3000A403FFF7A4FFDFF898030078800703D52D
:100A4000DFF89403FFF79BFFDFF884030078C0070B
:100A500003D5DFF88803FFF792FFDFF884030078FF
:100A6000000603D5DFF87C03FFF789FFDFF870038A
:100A70000078400603D5DFF87003FFF780FFDFF84A
:100A800060030078800603D5DFF86003FFF777FF87
:100A9000DFF84C030078400703D5DFF85403FFF775
:100AA0006EFFDFF83C030078800703D5DFF84403CE
:100AB000FFF765FFDFF828030078C00703D5DFF8EC
:100AC0003803FFF75CFFDFF83403FFF758FFDFF868
:100AD0003003DFF83013884204D0DFF82C03FFF72F
:100AE0004EFF03E0DFF82403FFF749FF00F003F8AF
:100AF00000F0A4FAFEE780B5DFF8140300680009EF
:100B000010F0070000280BD0022813D00DD30428C2
:100B100019D014D306281ED019D307281FD022E0DD
:100B2000DFF8F002FFF72BFF20E0DFF8EC02FFF721
:100B300026FF1BE0DFF8E402FFF721FF16E0B848CC
:100B4000FFF71DFF12E0B748FFF719FF0EE0B648A8
:100B5000FFF715FF0AE0B548FFF711FF06E0B448BC
:100B6000FFF70DFF02E0B348FFF709FFA848006850
:100B700010F00F00022812D0042814D0052816D037
:100B8000062818D007281AD008281CD009281ED0FB
:100B90000A2820D00C2822D00E2824D027E0A648EE
:100BA000FFF7EDFE26E0A548FFF7E9FE22E0A448A6
:100BB000FFF7E5FE1EE0A348FFF7E1FE1AE0A248BA
:100BC000FFF7DDFE16E0A148FFF7D9FE12E0A048CE
:100BD000FFF7D5FE0EE09F48FFF7D1FE0AE09E48E2
:100BE000FFF7CDFE06E09D48FFF7C9FE02E09C48F6
:100BF000FFF7C5FE86480068000B10F00F000028C4
:100C000003D0022809D004D30BE09648FFF7B7FEC3
:100C10000AE09548FFF7B3FE06E09448FFF7AFFE01
:100C200002E09348FFF7ABFE00F06AF891480068D5
:100C3000000E10F00F00072806D0092808D00B2856
:100C40000AD00F280CD00FE08B48FFF798FE0EE07B
:100C50008A48FFF794FE0AE08948FFF790FE06E015
:100C60008748FFF78CFE02E08648FFF788FE86483B
:100C70000068000203D58548FFF781FE1EE07D482D
:100C80000068000F002806D0072808D009280AD0DD
:100C90000F280CD00FE07E48FFF771FE0EE07D4874
:100CA000FFF76DFE0AE07C48FFF769FE06E07A4830
:100CB000FFF765FE02E07948FFF761FE78480068BB
:100CC000000B10F00F00052806D0072808D00828D0
:100CD0000AD009280CD00FE07248FFF750FE0EE052
:100CE0007148FFF74CFE0AE07048FFF748FE06E047
:100CF0006F48FFF744FE02E06E48FFF740FE01BD7B
:100D0000F8B56D48032101706C48002101706C48F2
:100D1000002101706B48002101706B4801210170B6
:100D20006A4880210170694800780006FBD5684850
:100D300000780400674800780500674800780600DE
:100D4000664800780700FFB20097F6B23300EDB2B4
:100D50002A00E4B221006248FFF711FE5648032141
:100D60000170564800210170554800210170554816
:100D70000421017054480121017054488021017000
:100D8000524800780006FBD55148007804005148CD
:100D900000780500504800780600504800780700A9
:100DA000FFB20097F6B23300EDB22A00E4B22100A0
:100DB0004C48FFF7E4FD4548FF210170F1BD0000FC
:100DC00074250000B804FF1F4404FF1FD822000050
:100DD00000E00740582800001426000038290000D1
:100DE00001E0074068280000A827000068260000EE
:100DF00080260000302600004429000094250000D1
:100E00000000FF1F00000000502900005C290000C6
:100E100024800440742900007C29000084290000FB
:100E20008C290000942900009C290000A4290000BE
:100E3000AC290000D0240000782800008828000099
:100E400098280000A8280000B8280000C828000042
:100E5000D8280000E8280000F82800000829000031
:100E600078240000BC270000D0270000E427000001
:100E7000202300004C80044098260000B02600008B
:100E8000C8260000B4250000508004401829000046
:100E9000E0260000F826000010270000D4250000FE
:100EA00000700440F82700000C28000020280000F3
:100EB000342800004C2600000700024006000240D3
:100EC00005000240040002400F0002400000024002
:100ED0000B0002400A0002400900024008000240E4
:100EE000F8240000F425000080B500F009F80A4855
:100EF00000884FF6FE7108400749088001BD0000D8
:100F000072B606484CF22051018004484DF6281173
:100F1000018062B670470000002005400E200540A9
:100F20002DE9F8432448254988420DD00020804609
:100F3000B8F5826F08D22048204951F8281040F8AF
:100F4000281018F10108F3E71B4800F04BF91C4882
:100F500007001C4806001C480400A01B80464046B1
:100F6000B0F10108002804D030783870761C7F1C5E
:100F7000F5E71648814616480500B5EB090080469E
:100F80004046B0F10108002805D0002089F8000093
:100F900019F10109F4E70F480F49104A531A98460E
:100FA0004346B3F10108002B04D00B780370491CB1
:100FB000401CF5E7BDE8F1830000FF1F00000000C2
:100FC0001004FF1FEC21000040220000B404FF1FAA
:100FD000DC04FF1F6404FF1F402200009022000079
:100FE00080B51148006850F478500F490860C82057
:100FF00000F090F90D4908600C4800684FF47A71D0
:1010000048430B4908600A4800680A490968C1F367
:101010000361491CB0FBF1F0074908604FF49641A9
:10102000012000F0F1FA01BD38800440B804FF1F30
:10103000B404FF1F44800440BC04FF1F80B572B697
:10104000012301220421022000F00CFC00235B4A52
:101050000121002000F068FC0023584A02210020F2
:1010600000F062FC5FF4E131002000F0CDFA0123D2
:1010700001221121002000F0F5FB012300221121A3
:10108000012000F0EFFB4E480068052101FB00F154
:10109000002000F037FE4A4800684FF47A7101FBE7
:1010A00000F1012000F02EFE62B6464800780128CB
:1010B00002D144480021017043480078012816D12C
:1010C000414800210170002000F082FB3F49087078
:1010D0003E48007800280AD0002000F06CFB401C3D
:1010E0003A49087039480178002000F07DFB384803
:1010F0000078012802D13648002101703548007877
:10110000012849D133480021017033480088032861
:101110000DD131480221018032220121002000F04E
:1011200094FD00220221002000F08FFD34E02A48C7
:10113000008802280DD128480121018000220121C8
:10114000002000F082FD00220221002000F07DFD41
:1011500022E02148008801280DD11F48002101808C
:1011600000220121002000F070FD32220221002027
:1011700000F06BFD10E01848008800280CD11648DC
:101180000321018000220121002000F05EFD0022E9
:101190000221002000F059FD10480078012884D178
:1011A0000E48002101700E480068C043400C0C49F5
:1011B000096860F351410A48016076E78038010010
:1011C000BC04FF1FCA04FF1FCB04FF1FDB04FF1F6B
:1011D000CC04FF1FCD04FF1FC804FF1FCF04FF1F57
:1011E00000F00F403D490860704738B504005C2CA2
:1011F00002DB3B48FFF7C3FB202094FBF0F0050027
:10120000002D03D0022D27D013D337E00120202159
:1012100094FBF1F202FB1142904032490860012038
:10122000202194FBF1F202FB114290402E4908600C
:1012300024E00120202194FBF1F202FB11429040B6
:101240002A4908600120202194FBF1F202FB11429F
:1012500090402749086011E00120202194FBF1F221
:1012600002FB11429040234908600120202194FB99
:10127000F1F202FB114290401F49086031BD38B5C0
:1012800004005C2C02DB1D48FFF779FB202094FB57
:10129000F0F00500002D03D0022D15D00AD31CE07C
:1012A0000120202194FBF1F202FB114290401449ED
:1012B000086012E00120202194FBF1F202FB1142B0
:1012C00090401049086008E00120202194FBF1F2D1
:1012D00002FB114290400C49086031BD08ED00E06E
:1012E0001024000080E200E000E100E084E200E081
:1012F00004E100E088E200E008E100E06023000093
:1013000080E100E084E100E088E100E0DFF800F047
:101310006504FF1F38B50400E4B2002C00F006811C
:10132000E4B2200030281ED0322823D0602828D0F4
:1013300064282DD06E2832D0782837D07D283CD034
:10134000822841D08C2846D096284BD0A02850D057
:10135000AA2855D0B4285AD0C8285FD0E12864D034
:10136000FA2869D06FE0A048182101709E4800213A
:1013700041706CE09C48182101709B48012141702C
:1013800065E09948182101709748182141705EE086
:1013900095481821017094481A21417057E09248ED
:1013A0001821017090481F21417050E08E48132190
:1013B00001708D481821417049E08B48132101705C
:1013C00089481A21417042E08748132101708648FC
:1013D0001C2141703BE084480E210170824812219B
:1013E000417034E080480E2101707F481521417022
:1013F0002DE07D480E2101707B481821417026E0C8
:1014000079480E21017078481B2141701FE0764811
:101410000E21017074481E21417018E072480C21A1
:10142000017071481C21417011E06F480B2101705F
:101430006D481E2141700AE06B480A2101706A481C
:101440001F21417003E06420FFF764FFCAE0664893
:1014500000218170E4B2332C03D263480021C170B3
:1014600017E0E4B2652C03D25F480121C17010E09F
:10147000E4B2972C03D25C480221C17009E0E4B2C7
:10148000C92C03D258480321C17002E056480F21ED
:10149000C17055485449C9780171E4B21A2C03D27D
:1014A00051480021417141E0E4B2332C03D24E484F
:1014B000012141713AE0E4B24C2C03D24A480221A6
:1014C000417133E0E4B2652C03D2474803214171F6
:1014D0002CE0E4B27E2C03D243480421417125E084
:1014E000E4B2972C03D24048052141711EE0E4B2DA
:1014F000B02C03D23C480621417117E0E4B2C92C5C
:1015000003D239480721417110E0E4B2E22C03D242
:1015100035480821417109E0E4B2FB2C03D232487E
:101520000921417102E030480F2141712E48407875
:10153000183080B2322148432B490978491C89B2BE
:1015400090FBF1F00500294800210170284800684F
:1015500050F08050264908602648007850F08000FE
:101560002449087024489821017024480078C00656
:10157000FBD422480078C0F38100C0B20228F8D121
:101580001948007810F01F001D4908701D480021FF
:10159000017015484379144802791348C1781248FC
:1015A0008078FFF7B3FE1048407810F01F0050F02D
:1015B000400014490870114800788006FBD50F4898
:1015C00000784006FBD50C48007810F03F000A492F
:1015D00008700A480078C0F38100C0B20328F8D12F
:1015E0002800C0B232BD00BF4404FF1F01400640C6
:1015F0003480044008C007400040064006400640D2
:101600000440064005400640F0B4C0B2002808D0AF
:10161000022824D014D304283FD02FD305284BD040
:1016200059E07F4E4FF4407737607E4E4FF440775D
:1016300037607D4E366856F480667B4F3E604AE0E8
:101640007A4E4FF440773760794E4FF440773760E9
:10165000754E366856F40066734F3E603BE0754E3B
:101660004FF440773760744E4FF4407737606E4EDA
:10167000366856F480566C4F3E602CE06F4E4FF447
:10168000407737606E4E4FF440773760664E36686D
:1016900056F40056644F3E601DE06A4E4FF44077AA
:1016A0003760694E4FF440773760684E366856F4BD
:1016B0008066664F3E600EE0654E4FF440773760BF
:1016C000644E4FF440773760604E366856F40066DB
:1016D0005E4F3E60FFE7C0B25F4E56F82060F6787E
:1016E00016F0F306C0B25C4F57F82070FE70C0B21F
:1016F000594E56F820600027B770C0B2002801D1BB
:10170000012600E00026C0B2012801D1012700E037
:1017100000273E43F6B2002E06D0504E36684FF4F6
:101720007A777E43350005E04D4E36684FF47A7780
:101730007E4335000E01B5FBF6F63200C0B2464ED0
:1017400056F82060367816F0E006340092B2160A99
:1017500016F01F062643C0B23F4F57F820703E7068
:10176000C0B23D4E56F8206072706E010F01B6FB9C
:10177000F7F692B2B6EB42163300C0B2364E56F8C8
:101780002060B67A16F0E0063400C0B2324E56F849
:10179000206013F01F072743B772C0B22E4E56F8D1
:1017A0002060F67856F00C06C0B22B4F57F8207028
:1017B000FE70F0BC7047C0B2274951F8201009797B
:1017C0008906F8D5C0B2244951F82000C079704785
:1017D0000100C9B2204850F821000079800601D5E7
:1017E000012000E000207047C0B21B4A52F82020C0
:1017F00012791206F8D5C0B2174A52F82020D171DA
:10180000704738B504000D002878002806D02978E4
:101810002000C0B2FFF7E8FF6D1CF5E731BD000006
:101820003C90044038900440348004400CB00440A4
:1018300010B004400CC0044008C0044040B0044054
:1018400044B0044064D0044060D004402880044088
:1018500024D0044020D004404C04FF1FB404FF1FD8
:10186000BC04FF1FF8B504000D0016001F00EDB208
:10187000202D02D2FFB2022F03D34721274800F0C8
:1018800079FAEDB2E4B2264850F82400F6B24FF4EB
:101890008071314340F82510F00705D5F6B2032ECC
:1018A00002D0F6B2132E0DD1E4B21E4850F8240037
:1018B00040690121A9408843E4B21A4951F8241033
:1018C00048612AE0E4B2174850F824004069012139
:1018D000A9400843E4B2134951F824104861FFB20B
:1018E000012F0DD1E4B20F4850F824000068012107
:1018F000A9400843E4B20B4951F8241008600CE0F9
:10190000E4B2084850F8240000680121A940884347
:10191000E4B2044951F824100860F1BD9C23000092
:101920003004FF1F1C04FF1F2DE9F84F04000D00B9
:1019300016001F00DFF8840300684FF47A714843F3
:101940005FEA5008E4B2002C0DD0E4B2012C02D0C2
:10195000E4B2022C02D1EDB2022D04D33821DFF81B
:10196000600300F007FA5FEA5800B04204D2392160
:10197000DFF84C0300F0FEF95FEA1840B0FBF6F028
:101980008146002082461FFA89F959FA0AF0012897
:1019900002DB1AF1010AF6E74FF47A70864201D2AF
:1019A0001AF1010A38FA0AF0B0FBF6F081461FFA84
:1019B00089F919F1010000FB07F06421B0FBF1F097
:1019C0008346E4B2002C05D0022C00F0BA80C0F0AF
:1019D0008A80E4E0DFF8EC02006850F08070DFF805
:1019E000E4120860EDB2002D0BD0022D25D016D3E5
:1019F000042D3ED02FD3062D57D048D3072D62D0CB
:101A00006FE0DFF8C402006850F40060DFF8B8123D
:101A10000860DFF8B8024FF48061016062E0DFF82F
:101A2000A802006850F40060DFF89C120860DFF83C
:101A3000A0024FF48061016054E0DFF88C0200687E
:101A400050F40060DFF880120860DFF888024FF47D
:101A50008061016046E0DFF87002006850F40060C9
:101A6000DFF864120860DFF870024FF480610160F3
:101A700038E0DFF85402006850F48050DFF8481274
:101A80000860DFF858024FF4806101602AE0DFF857
:101A90003802006850F48050DFF82C120860DFF83C
:101AA00040024FF4806101601CE0DFF81C02006816
:101AB00050F48050DFF810120860DFF828024FF46D
:101AC000806101600EE0DFF80002006850F4805091
:101AD000DFF8F4110860DFF810024FF48061016054
:101AE00000E0B0E05BE0DFF8DC01006850F000707F
:101AF000DFF8D0110860EDB2002D02D0012D0FD01B
:101B00001DE0DFF8C40100684FF400710843DFF8FE
:101B1000B8110860DFF8D4014FF4407101600FE0A4
:101B2000DFF8A40100684FF400710843DFF8981152
:101B30000860DFF8BC014FF44071016000E082E012
:101B40002DE0DFF8B001006850F08070DFF8A411DC
:101B50000860EDB2002D02D0012D0FD01DE0DFF89E
:101B6000680100684FF400710843DFF85C110860F9
:101B7000DFF884014FF4407101600FE0DFF84801A5
:101B800000684FF400710843DFF83C110860DFF88B
:101B90006C014FF44071016000E054E0FFE7EDB2EA
:101BA000E4B2DFF85C0150F8240010EBC500EDB2A0
:101BB000E4B2DFF84C1151F8241011EBC501C968EB
:101BC00031F00401C160EDB2E4B2DFF8340150F845
:101BD000240010EBC5002821C160E4B2DFF8200129
:101BE00050F824005FFA8AFA1AF0070151F0280130
:101BF0000160E4B2DFF8080150F824000021C1645C
:101C0000E4B2DFF8FC0050F824001FFA89F9C0F8AC
:101C10000890E4B2DFF8E80050F824000021C16425
:101C2000EDB2E4B2DFF8D80050F8240010EBC500A4
:101C30001FFA8BFBC0F810B0E4B2DFF8C40050F814
:101C4000240000214160BDE8F18F2DE9F04104003E
:101C50000D001600E4B2002C0ED0E4B2012C02D02C
:101C6000E4B2022C02D1EDB2022D05D340F267118D
:101C7000DFF84C0000F07EF8652E05D34FF4B47108
:101C8000DFF83C0000F076F8E4B2DFF8740050F8BA
:101C900024008068804618F1010000FB06F06421F2
:101CA000B0FBF1F00700EDB2E4B2DFF8540050F8F9
:101CB000240010EBC5000761BDE8F081BC04FF1FE4
:101CC000D82300003C8004403880044004B0044025
:101CD00008B004400CB0044010B0044010C00440F0
:101CE00014C0044018C004401CC0044020900440AC
:101CF0002490044030800440289004402C900440FC
:101D00001004FF1F38B504000D001748006850F498
:101D100000001549086015480068800880001349D4
:101D20000860E4B2200112494550E4B2104810EBBB
:101D30000410C06850F00100E4B20D4911EB041129
:101D4000C860E4B20A4810EB0410806850F0030049
:101D5000E4B2074911EB04118860E4B214F14400C5
:101D6000FFF743FA31BD00003C800440007003409F
:101D70000071034038B504000D002A00210002481C
:101D8000FEF7FDFDF9E700BF9022000010B572B626
:101D90000120FFF710FD0400DFF8C4130120FFF756
:101DA00030FD2100C9B20120FFF71EFD62B610BD53
:101DB000DFF8B003006850F00100DFF8A8130860F6
:101DC000DFF8A403012101707047DFF8A003006869
:101DD00050F00100DFF894130860DFF894030078F6
:101DE000401CDFF88C130870DFF8880301210170B4
:101DF000DFF87C030078022190FBF1F202FB110274
:101E0000002A03D1DFF8700301210170DFF86003BD
:101E10000078032190FBF1F201FB1200002803D1AE
:101E2000DFF8580301210170DFF844030078042132
:101E300090FBF1F202FB1102002A03D1DFF840030C
:101E400001210170DFF828030078402190FBF1F2B6
:101E500002FB1102002A03D1DFF8280301210170DF
:101E6000DFF80C030078C02803D1DFF80403002159
:101E7000017070477047704780B5DFF80C03FEF7BC
:101E80007EFDFAE7002008210800DFF8001309684A
:101E90000122824011421DD0BC49096801228240C2
:101EA0001143BA4A1160BA490988002903D1B949D6
:101EB00001220A700EE0B64909880E290AD3B449F6
:101EC00000220A80B34900220A70B3490978491CEC
:101ED000B14A117009210800AC4909680122824009
:101EE00011421DD0A9490968012282401143A74A25
:101EF0001160AA490988002903D1A94901220A7061
:101F00000EE0A64909880E290AD3A44900220A80B6
:101F1000A34900220A70A3490978491CA14A1170FB
:101F20000A210800994909680122824011421DD006
:101F300096490968012282401143944A11609A49E6
:101F40000988002903D1994901220A700EE09649B7
:101F500009880E290AD3944900220A809349002255
:101F60000A7093490978491C914A11700B210800A5
:101F7000864909680122824011421DD083490968BF
:101F8000012282401143814A11608A49098800294F
:101F900003D1894901220A700EE0864909880E2979
:101FA0000AD3844900220A80834900220A708349A7
:101FB0000978491C814A11707047002000210800EF
:101FC0007F49096801228240114206D07C49096894
:101FD0000122824011437A4A11600A21080078499F
:101FE000096801228240114206D075490968012220
:101FF00082401143724A116070477248006850F085
:1020000001007049086063480078002804D06048E7
:102010000088401C5E4908805D480088972805D3E9
:102020005B48002101805B48002101705C4800781A
:10203000002804D059480088401C58490880574857
:102040000088972805D35548002101805448002175
:10205000017056480078002804D053480088401C7E
:102060005149088050480088972805D34E480021E0
:1020700001804E48002101704F480078002804D0AC
:102080004C480088401C4B4908804A4800889728E3
:1020900005D348480021018047480021017070475E
:1020A000704738B54848046847480021016000205F
:1020B00005000120A8402100C9B201420CD0EDB2B8
:1020C000424850F8350030F04000EDB23F4941F849
:1020D00035003F48FEF753FC012005000120A840D1
:1020E0002100C9B2014209D0EDB2384850F835009C
:1020F00030F04000EDB2354941F8350031BD80B5D2
:102100003448006850F01000324908600420FFF79E
:10211000B6F83148006830F010002F4908602F48A9
:102120000121017001BD80B52D48FEF728FC29482A
:10213000006850F00100274908602748006850F007
:1021400001002549086001BD2648006850F0800064
:102150002449086024480078401C234908707047CF
:10216000802700001C710340CF04FF1F0C71034047
:10217000D004FF1FCA04FF1FCB04FF1FCC04FF1FA6
:10218000CD04FF1FCE04FF1F54250000A0C0044053
:10219000C004FF1FD104FF1FD204FF1FC204FF1F92
:1021A000D304FF1FD404FF1FC404FF1FD504FF1F67
:1021B000D604FF1FC604FF1FD704FF1FD804FF1F4C
:1021C000A0A004402C710340509003400C900340A9
:1021D00048280000248000400C800040D904FF1FE4
:1021E0009427000000000440DA04FF1F0080034031
:1021F0000090034000800B4000F00F4040F00F4083
:1022000080F00F40C0F00F4000F10F4000900440FC
:1022100000A0044000B0044000C0044000D00440CE
:102220000B1F00000009000000A0064000B006409F
:1022300000C0064000D0064000A00E4000B00E4096
:10224000F0B4114E366834000F4E366856F47F06EF
:102250000D4F3E600E0616F0706656EA00761705C2
:1022600017F470073E431F0417F470273E43074FCF
:102270003E6000263500EDB29D4201D26D1CFAE7AA
:10228000014E3460F0BC704700F0014044800440CF
:10229000B6CFD1D4B7A2C9FAD4DA2573CEC4BCFE66
:1022A000B5C4B5DA2564D0D0A3A10AB6CFD1D4CCB9
:1022B000F5BCFEB2BBB3C9C1A2A3ACC7EBBCECB2C8
:1022C000E2B4EDCEF3D4ADD2F2A1A309A1AAA1AAA2
:1022D000206279200A0A0000C4DABACBC6B5C2CAA5
:1022E000A3BA25644D487A09D7DCCFDFC6B5C2CA88
:1022F00020A3BA25644D487A0A666C6578C6B5C2D3
:10230000CAA3BA25644D487A2009666C617368C611
:10231000B5C2CAA3BA25644D487A0A0A0000000073
:102320000A546869732076657273696F6E206F66F0
:1023300020736F66747761726520646F65736E27B2
:1023400074207265636F676E697A652074686520B2
:102350007265766973696F6E20636F64652E000025
:102360000A4552522120496E76616C6964204952B7
:10237000512076616C75652070617373656420749B
:102380006F2064697361626C652069727120667583
:102390006E6374696F6E210A00000000483A5C3772
:1023A0003632305C6C616E647A6F56352E30354F44
:1023B0005645522D20425453373936305C73726380
:1023C0005C647269766572735C6770696F5C677074
:1023D000696F2E6300000000483A5C373632305C8B
:1023E0006C616E647A6F56352E30354F5645522DDE
:1023F00020425453373936305C7372635C647269BF
:10240000766572735C46544D5C46544D2E630000F5
:102410000A4552522120496E76616C696420495206
:10242000512076616C7565207061737365642074EA
:102430006F20656E61626C65206972712066756ED1
:102440006374696F6E210A000A2A2A2A2A64656663
:1024500061756C745F69737220656E746572656412
:10246000206F6E20766563746F722025642A2A2A95
:102470002A2A0D0A0A0000000A556E7265636F670A
:102480006E697A6564204B696E657469732070614A
:10249000636B61676520636F64652E2020202020B8
:1024A0002000000010B5084979441C31074C7C44D9
:1024B0001A34A14206D0081D0A68511888470146FF
:1024C000A142F8D110BD00BF7C00000088000000D0
:1024D0000A556E7265636F676E697A6564204B6931
:1024E0006E657469732066616D696C7920646576C8
:1024F0006963652E0A000000466C61736820706194
:1025000072616D657465722076657273696F6E2095
:1025100025642E25642E25642E25640A0000000003
:1025200050F8041B61B150F8042BD30744BFA9F144
:1025300001039A18002342F8043B091FFAD1EFE780
:1025400070470000DDFFFFFF28000000B404FF1FFC
:10255000000000000A2A2A2A2AD3B2BCFEC9CFB73B
:10256000C3B4EDCEF32121212A2A2A2A2A0D0A0AF0
:10257000000000000A0A0909C0B6D6E66B696E655C
:10258000746973BACBD0C4B0E5B2E2CAD4B3CCD0CC
:10259000F20A00000AC0B6D6E64B696E657469732C
:1025A000BFAAB7A2B0E5C6F4B6AFB7BDCABDA3BA5D
:1025B00000000000455252212120556E6465666975
:1025C0006E656420502D666C6173682073697A654E
:1025D0000A000000455252212120556E646566694B
:1025E0006E656420466C65784E564D2073697A6539
:1025F0000A000000466C6173682076657273696F2B
:102600006E2049442025642E25642E25642E2564E1
:102610000A000000436F7265204C6F636B75702079
:102620004576656E742052657365740A000000007B
:102630004C6F772D766F6C746167652044657465A7
:1026400063742052657365740A000000455252217C
:102650002120556E646566696E65642052414D2087
:1026600073697A650A0A00005761746368646F676A
:1026700028434F50292052657365740A00000000FA
:102680004C6F7373206F6620436C6F636B205265D1
:102690007365740A00000000313238206B4279748F
:1026A0006573206F6620502D666C617368090000A9
:1026B000323536206B4279746573206F6620502D59
:1026C000666C617368090000353132206B427974A1
:1026D0006573206F6620502D666C61736809000079
:1026E00030206B4279746573206F6620466C657884
:1026F0004E564D0A00000000313238206B4279748A
:102700006573206F6620466C65784E564D0A000052
:10271000323536206B4279746573206F6620466CC3
:1027200065784E564D0A000080B503480178C9B25D
:102730000248FEF724F901BD04ED00E04824000042
:1027400000F009F8002801D0FFF7ACFE0020FEF7EA
:1027500075FC00F002F80120704700F001B800009D
:102760000746384600F002F8FBE7000080B5C04697
:10277000C046024A11001820ABBEFBE7260002004B
:102780000AC4E3B7A2CBCDB5C4CAFDBEDDCEAAA3B1
:10279000BA000000444D415F4348305F48616E64B9
:1027A0006C65720A0000000045787465726E616C99
:1027B0002050696E2052657365740A0053696C6914
:1027C000636F6E2072657620312E302020200A0043
:1027D00053696C69636F6E2072657620312E3120EB
:1027E000200A000053696C69636F6E207265762061
:1027F000312E3220200A00003332206B427974657A
:1028000073206F662052414D0A0A00003634206B57
:102810004279746573206F662052414D0A0A0000A8
:102820003936206B4279746573206F662052414DB2
:102830000A0A0000313238206B4279746573206FC8
:10284000662052414D0A0A000A46544D31B7A2CBC8
:10285000CDD6D0B6CF0A0000536F6674776172652B
:102860002052657365740A00506F7765722D6F6E24
:102870002052657365740A00333270696E2020201F
:102880002020202000000000343870696E202020B5
:102890002020202000000000363470696E202020A7
:1028A0002020202000000000383070696E20202099
:1028B0002020202000000000383170696E20202088
:1028C000202020200000000031303070696E202070
:1028D000202020200000000031303470696E20205C
:1028E000202020200000000031343470696E202048
:1028F000202020200000000031393670696E202031
:10290000202020200000000032353670696E202023
:102910002020202000000000502D666C617368208C
:102920006F6E6C790A00000010B504002100C9B276
:102930000120FEF759FF10BD4A54414720526573EC
:1029400065740A004C4C57552052657365740A0033
:10295000666C617368C6F4B6AF0A00005352414D0D
:10296000C6F4B6AF0A000000C046C046C046C04626
:10297000FFF7E6FE0A4B31302D0000000A4B3230E3
:102980002D0000000A4B33302D0000000A4B34307C
:102990002D0000000A4B36302D0000000A4B373066
:1029A0002D0000000A4B35302D0000000A4B353356
:0429B0002D000000F6
:040000050000296965
:00000001FF
