:10000000F8FF002011040000AF280000AF28000016
:10001000AF280000AF280000AF280000AF28000084
:10002000AF280000AF280000AF280000AF28000074
:10003000AF280000AF280000AF280000AF28000064
:10004000AF280000AF280000AF280000AF28000054
:10040000FFFFFFFFFFFFFFFFFFFFFFFFFEFFFFFFFD
:1004100062B603F00DFBFEE72DE9F04FA1B0824676
:1004200002AE002017461D46029170620DF144088D
:100430000AE017F8011B0298D0470290002800F04C
:100440008782706A401C7062387808B9706A81E2ED
:100450002528EED10020F06030617061B061F0615C
:10046000306201E040F0010017F8011F2029F9D0A7
:1004700023290DD02B2904D02D2906D030290AD0CC
:100480000CE040F0020080B2EEE740F00400FAE732
:1004900040F00800F7E740F01000F4E72A290DD1FA
:1004A00029680A1D2A600968F162002904D54942B9
:1004B00040F00400F16280B27F1C13E00021F16281
:1004C0000BE0F16A6FF00043994205D001EB810324
:1004D00002EB43013039F1627F1C3A78A2F130011E
:1004E0000A29EED339782E2903D04FF0FF31B162BB
:1004F0001EE017F8011F2A2906D129680A1D2A6063
:100500007F1C0968B16213E00021B1620BE0B16A9F
:100510006FF00043994205D001EB810302EB4301E8
:100520003039B1627F1C3A78A2F130010A29EED34A
:1005300030860FF64820397800F03EFD08B117F8F4
:10054000010B8DF83A009DF83A00682802BF39780F
:100550006829622005D06C2804BF38786C2803D144
:1005600071208DF83A007F1C11A8B0603978B1F184
:1005700025001FD0203802286CD9133800F0958050
:100580000B3800F02B81401E00F0D480401E022862
:1005900060D9001F00F0CE80401F30D0401E00F018
:1005A0008480401E20D0C01E09D0801E7DD0C01E79
:1005B0007BD01BE1F068411CF160252120E1286817
:1005C000011D29600068B26A7060002A02D500F03F
:1005D000FFFC07E0002100F017FD00281ABF71683A
:1005E000401AB06A30610DE12868011D29600021C0
:1005F0000068CDE9000111A870607821EAE09DF85B
:100600003A00622818D0682806D06A280BD06C28D7
:1006100019D0712807D016E02868011D29600068EC
:10062000716A0180EEE02A68101D28601268706A05
:10063000C117C2E90001E5E02868011D29600068D2
:10064000716A0170DEE02868011D29600068716A26
:100650000160D7E02868C01D20F00700286000F185
:1006600008022A60D0E90023CDE90023002B04D53D
:10067000F068421CF2602D220DE0308E820704D516
:10068000F068421CF2602B2205E0C00705D5F06837
:10069000421CF260202200F80820F06811AA80189D
:1006A000706000A800F008FAACE09DF83A006C28F1
:1006B00008BF2A6811D0712808BF2A6802D02A68AA
:1006C0006A280AD1D21D22F007022A60144604F1DA
:1006D00008022A60D4E9002303E0131D2B600023E5
:1006E0001268CDE90023682808BF92B207D06228BB
:1006F00008BFD2B203D0742818BF7A2802D10023D1
:10070000CDE9002396F8300000075FD5DDE900232E
:10071000002B08BF002A59D041F02000782855D17D
:10072000F068302200F80820401C421CF26000F8FB
:1007300008104BE09DF83A0062280CD0682810D0D1
:100740006A281AD06C2823D0712816D074281FD09C
:100750007A280CD01CE02868021D2A6090F900203D
:100760001AE02868021D2A60B0F9002014E0286809
:10077000021D2A60002302680FE02868C01D20F0D7
:100780000700286000F108022A60D0E9002304E095
:100790002868021D2A600268D317CDE90023002BC8
:1007A00004DAF068421CF2602D220DE0308E8207E0
:1007B00004D5F068421CF2602B2205E0C00705D585
:1007C000F068421CF260202200F80820F06811AAAC
:1007D0008018706000A800F0C0F813E0F068411CB9
:1007E000F16029680A1D2A60096809E0F068421C66
:1007F000F260252200F8082021B1F068421CF26066
:1008000000F80810F06AF168401AB169401A3169BD
:10081000401AF169401A7169401A316AA0EB010966
:1008200096F830007F1C400710D420208DF840003F
:10083000002409E0012310AA00A9504600F086FB1D
:10084000002840F08580641C4C45F3DBF4680DF112
:10085000440B0AE01BF8011B0298D04702900028C5
:1008600076D0706A401C7062641E002CF2D1302079
:100870008DF840004FF0000BB46909E0012310AA85
:1008800000A9504600F062FB002861D10BF1010B7A
:10089000A345F3DB3469D6F804B00AE01BF8011B6A
:1008A0000298D0470290002852D0706A401C7062B3
:1008B000641E002CF2D130208DF840004FF0000B68
:1008C000F46909E0012310AA00A9504600F03EFB9C
:1008D00000283DD10BF1010BA345F3DB30697168B2
:1008E000746900EB010B09E01BF8011B0298D0476B
:1008F000029068B3706A401C7062641E002CF3D1D1
:1009000030208DF840004FF0000B346A08E00123DE
:1009100010AA00A9504600F019FBC8B90BF1010B51
:10092000A345F4DB96F8300040077FF58DAD20201D
:100930008DF84000002400E0641C4C45BFF684ADF7
:10094000012310AA00A9504600F000FB0028F3D0B4
:100950004FF0FF3021B0BDE8F08F2DE9FA47064691
:1009600082B035690A466F2A08BF082705D041F0D2
:100970002000782814BF0A271027D6E900013C245C
:1009800080468946642A18BF692A05D1002903DAFE
:10099000D8F1000869EB4909B9F1000F08BFB8F1B7
:1009A000000F0CD1306B50B9082F3BD196F83800AE
:1009B000000737D530203B2485F83B0032E0CDE9F5
:1009C0000089FB17404649463A4600F049FBB846C5
:1009D000A8FB0023DDE90089A8EB02023032A4F174
:1009E000010AD2B254463A2A03DB9DF80830513B43
:1009F0009A180AF8052080465FEA010908BFB8F195
:100A0000000F03D0F06861198842D8D3082F09D1AC
:100A100096F83800000705D5605D302802D0641EC6
:100A200030206055C4F13C00B0616119F160316B58
:100A3000884207DA081A30624FF6EF71308F0840AB
:100A4000308710E000290ED596F8381001F0140117
:100A5000102908D1716B7269891A326A891A081AC9
:100A60000128A8BF306204B0BDE8F0872DE9D0436B
:100A700006460F4614464FF00008DFF8389012E0A3
:100A8000E00707D542464B463046394600F060FB4A
:100A900006460F4664104046494642464B4600F023
:100AA00057FB80468946002CEAD130463946BDE8DE
:100AB000D0830000000024402DE9F34F8BB0D0E933
:100AC0000089006B01AF002802D50B98062106E0D3
:100AD00004BF41F02000672802D10B980121016377
:100AE0000B984168C1F30A5040F2FF72904220D146
:100AF000080302BF0B98006800280AD10B98032155
:100B000081619DF8300061381A2844D30FF280418A
:100B100009E00B98032181619DF8300061381A28A3
:100B200036D30FF264410B98C068032200F0E2FB59
:100B3000EFE0012807DA0B9800F017FC012802DB30
:100B400000230026DCE00B9A526840F2FE3161F38C
:100B50001E520B994A6040F2FE31461A4046494601
:100B60000022002300F022FC38BF89F0004936B291
:100B700047F297507043414990FBF1F636B2C6F107
:100B80000702012A0ADB40464946FFF76FFF27E0CC
:100B90000FF2F031C7E70FF2F431C4E757420024F7
:100BA000374DDFF8E0B09A4612E0F80707D5524615
:100BB0005B462046294600F0CBFA04460D467F10DE
:100BC0005046594652465B4600F0C2FA82468B4672
:100BD000002FEAD14046494622462B4600F0FEFB54
:100BE00080469DF8300040F020058946662D0CBFF8
:100BF00006F10A0006200B99096B4718142FA8BFAD
:100C0000132730208DF804000DF10504DFF878B0CB
:100C1000012F3BDB4046494600F004FD014604F14C
:100C2000080204234FF00A0CB1FBFCFC0CEB8C0413
:100C3000A1EB4401303102F8011D0A21BCFBF1FE99
:100C40000EEB8E04ACEB44043034714602F8014DD7
:100C50005B1EE7D1083F02F10804012FD8DB00F04A
:100C6000F7FC02460B464046494600F0FFFC0022D6
:100C70005B4600F06DFA80468946CBE7A08601000E
:100C80000000F03F0000244084D797410DF105009B
:100C9000201A0DF1050702E0401E761E7F1C3978F0
:100CA0003029F9D0662D02D136B2711C03E0652DD2
:100CB0000CBF012100210B9A126B8B181BB29842BA
:100CC000B8BF03461BB219001AD4814204DAC85DCA
:100CD0003528A8BF392000DA3020CA19521E00E09A
:100CE0005B1E12F80159491E8542F9D0392802D1FC
:100CF000C85D401CC855002902D57F1E5B1C761CB0
:100D000036B29DF830100B9800961BB23A4600F0B0
:100D100003F80DB0BDE8F08F2DE9F04786B0064628
:100D20008A4690461D4600F07EFD406A376B90F87B
:100D30000090012D02DA01250FF258284AF0200018
:100D4000BDF93840662808BF641C13D0672840F0FE
:100D5000878014F1040F72DBBC4270DA96F8380019
:100D6000641C000702D4BD42B8BF2F4624B23F1B0B
:100D700048BF0027F068B16924B2012C21DA302382
:100D80004A1C0B54012F03DA96F83810090702D5D4
:100D900002F80090521CB261E742B8BF7C4224B214
:100DA0006142E7197162AF42B8BF3D462DB2F561AD
:100DB0002A46B3694146181800F09CFA781BB062C5
:100DC000ADE00818A54216DA2A46414600F092FA2C
:100DD000B1696918B161601B7062012F03DA96F87E
:100DE0003800000705D5F06801F80090F069401C54
:100DF000F061B76293E02246414600F07BFAB069A9
:100E000020182D1B012F03DA96F83810090703D597
:100E1000F16800F80190401C2DB2B061AF42B8BF3C
:100E20003D46F3682DB22A4604EB0801C01800F0D5
:100E300061FAB0692818B061781B70626FE0BD423A
:100E400004DA96F83810090758BF2F467F1E48BFAE
:100E50000027BAF1670F0CBF4FF0650A4FF0450A43
:100E6000B169F06818F8013B0B544A1C012F05DAF0
:100E700096F83810090758BFB26115D502F80090EE
:100E8000531CB361012F0FDB6D1E2DB2AF42B8BFF3
:100E90003D462DB22A464146181800F02BFAB0699B
:100EA0002818B061781B7062B069F16800EB010826
:100EB000200008F801AB03D42B2008F8010B03E055
:100EC0002D2108F8011B4442002502AF08E00A2248
:100ED00000A800F0C1FC019807F8010B6D1C009CF4
:100EE00021B20129F3DA022D06DA4AF02000652842
:100EF00004BF302008F8010B4DB9302008F8010B71
:100F000007E06D1E02A8285C303008F8010B012DA7
:100F1000F7DAB069F1684018A8EB0000F06196F8C4
:100F2000380000F0140010280DD17069B16908185C
:100F3000716A0818F1690818B16A0818716B88425B
:100F4000BCBF081A306206B0BDE8F087F8B50446A9
:100F50000D4616461F46002004E0E86A401CE86281
:100F60007F1E002047B116F8011BA868A047A860A3
:100F70000028F2D14FF0FF30F2BD0000686A6C74B7
:100F80007A4C00006E616E004E414E00696E660044
:100F9000494E4600300050F8041B61B150F8042B54
:100FA000D30744BFA9F101039A18002342F8043B78
:100FB000091FFAD1EFE770470278C9B28A421AB125
:100FC0001CBF10F8012FF9E718BF00207047000080
:100FD00000F10103810704D010F8011B89B18107DA
:100FE000FAD10268B2F10131914311F0803F04BFA0
:100FF00050F8042FF6E710F8011B11B110F8011B8F
:10100000FBE7C01A70470000C9B2830706D0521E22
:1010100022D310F8013B9942F7D11FE0083A13D3CD
:1010200002F1040241EA012141EA014150F8043B86
:10103000121F21BF4B40A3F1013C2CEA030C1CF012
:10104000803FF3D0C9B2001F083210F8013B521E96
:1010500028BF91EA030FF8D818BF0120401E70473F
:101060001B4213D1094236D12AB18446B0FBF2F0BB
:1010700002FB10C2704700F0F7BBFCD30022002334
:1010800070470B000200002100207047904271EB76
:10109000030CF6D370B5B1FA81F4B3FA83F52C1BC7
:1010A000A340C4F1200532FA05F63343A2405FF0B5
:1010B0000046E64002E05B085FEA3202841A71EB08
:1010C000030524BF204629467641F4D302000B00D5
:1010D0003000002170BD012ACFD970B5140C20D08A
:1010E000B1FA81F4B2FA82F5C4F120046419B4F1C2
:1010F0002006D6D3B2405FF00044F440002502E061
:1011000052085FEA3303C61A71EB020E24BF304661
:10111000714664416D41F3D302000B0020002900A9
:1011200070BD0C46B1FBF2F102FB11452D0445EAFE
:101130001045B5FBF2F402FB145580B240EA0545B8
:10114000B5FBF2F002FB105240EA044070BD000013
:10115000B0B581EA030C0CF0004C40F2FF7515EAC3
:1011600011541DBF15EA1357AC42AF4239E0E419E0
:1011700023EA455343F48013C90241F0004141EA98
:10118000505EC7021100A7FB020200284FF00000CA
:10119000EEFB01204FF00001E3FB072118BF42F0F6
:1011A0000102401800214941E3FB0E01A4F58064CF
:1011B0000F0302D252004041494154F101046CDD59
:1011C000470872F1004250F1000051EB0451A1F5C3
:1011D00080115CBF41EA0C01B0BD4CEA0551002012
:1011E000B0BD05EA1357AC4214BFAF4241E050EA2C
:1011F000410E1CBF52EA430E02E061460020B0BD22
:1012000024423C441BD15FEA070EF6D0090302BF1B
:1012100001460020AEF1140EB1FA81F7AEEB0704DF
:1012200001FA07FE0C37C7F1200100FA07F7C840A2
:101230004EEA000E23EA455343F48013A2E733F04D
:101240000043B3FA83F704BFB2FA82FE77440B3F40
:10125000E41BB7F1200E2FBF02FA0EF3BB40C7F11B
:10126000200E22FA0EFE38BF43EA0E03BA40641C79
:1012700082E750EA410E14BF52EA430E6FF00001BC
:101280004FF4001717EB430F8ABF194617EB410FB6
:10129000B5E74CEA05510020B0BDD4F10104B4F12A
:1012A00020070FDAC4F12007520828BF42F00102DC
:1012B00010FA07F501FA07F7E1BF2A43E040384387
:1012C000E1400FE0352C98DCC7F1200452EA4002DF
:1012D00020FA07F218BF42F0010231FA07F0A140EC
:1012E0000A43002172F1004250F1000051EB0C0161
:1012F000B0BD000062B38B0708D0521E11F8013B4D
:1013000000F8013B00F024808B07F6D1830740F002
:10131000208000BF103A07D330B4B1E83810103A3B
:10132000A0E83810F9D230BC530724BFB1E8081048
:10133000A0E8081044BF51F8043B40F8043BD20732
:1013400024BF31F8022B20F8022B44BF0B78037026
:101350007047083A07D3B1E80810083A40F8043B50
:1013600040F804CBF7D25307E4E730B4436803F006
:10137000004201211B031B0B436004BF0368002BC9
:1013800008D10DE00368DD0F45EA440444605B00CA
:101390000360491E4468E302F4D523031B0B43603A
:1013A00043681A434260084630BC70474FF4001C43
:1013B0001CEB410F94BF1CEB430F09E041EA030C07
:1013C00050EA4C0C52EA0C0C03D2994208BF9042EE
:1013D000704714BF8B42824270470000F0B540F264
:1013E000FF7581EA030C0CF0004C15EA11541DBF87
:1013F00015EA1357AC42AF42E5E0BC41C1F313011B
:10140000C3F31303801A994143F4801304D2641E7A
:101410004000494180185941C90241EA5051B1FB8D
:10142000F3F603FB1611A2FB0675D7EBC020A9410A
:1014300002D2761E80185941C90241EA5051B1FBCF
:10144000F3FE03FB1E11A2FB0E75D7EBC020A941D2
:1014500003D2AEF1010E80185941890241EA905140
:10146000760546EA8E2EB1FBF3F603FB1611A2FBBE
:101470000675D7EB8020A94102D2761E801859410B
:10148000C90241EA50514EEA060EB1FBF3F603FBE6
:101490001611A2FB0675D7EBC020A94102D2761E19
:1014A00080185941C90241EA5051B1FBF3F703FBDF
:1014B0001711A2FB0735D3EBC020A94167F1000744
:1014C0000CBF004247F0010766F3D5274FEA1E31F3
:1014D000B80814F5806412DDBD0775F1004250EBC9
:1014E0000E5051EB045111F5801F5CBF41EA0C0115
:1014F000F0BD4CF07F6141F0E0410020F0BDBD0740
:101500006D0840EA0E5041F48011D4F10104B4F1A9
:1015100020060ADAC4F120060200E04001FA06F3D0
:10152000E1401843B24015430EE0342C13DCC6F101
:10153000200445EA40056D0820FA06F2154321FA19
:1015400006F0A1400D43002175F1004250F100006A
:1015500051EB0C01F0BD00205FEA0C01F0BDCFB9EA
:1015600092185B41B3FA83F704BFB2FA82F6BF194F
:101570000B3FB7F120062FBF02FA06F3BB40C7F1BD
:10158000200622FA06F638BF3343BA401CB1E419EC
:10159000641E33E77F4231F00041B1FA81F404BFA9
:1015A000B0FA80F6A4190B3CB4F120062FBF00FA64
:1015B00006F1A140C4F1200620FA06F638BF3143F7
:1015C000A0403C1B1AE7AC421ABF05EA1357AF42D2
:1015D00012E050EA41061CBF52EA4306BFE750EA58
:1015E0004107304661461CBF41EA0551F0BD52EA51
:1015F000430C08BFC143F0BD00204FF4001616EBAA
:10160000410F98BF16EB430F08BF16EB410F24BFE5
:10161000C14305E016EB430F0CBF61464CEA055190
:10162000F0BD0000400D40EAC120490080F00D806F
:1016300040F00040490DA1F58061491C05D4D1F16D
:101640001F0154BFC840C01770474FF000007047DB
:10165000010000BF09D0B0FA80F18840C91CC1F573
:101660008461090501EBD0214005704770B44FF04B
:10167000004591EA030F44BF6B4000F001B900BF81
:10168000841A71EB030604D26E40001BB14112199B
:1016900073414FF4001C1CEB410F34BF7CEB43063D
:1016A00084E00C0DA4EB1356362E7DDC012E43DCBA
:1016B00045EAC32343EA525312BFD20292025B08A7
:1016C000240545EAC12141EA5051D2EBC02099419D
:1016D00025D407D1B0FA80F610FA06F164D00020C4
:1016E000203608E0B1FA81F6B140C6F1200220FAB6
:1016F00002F21143B0404FEAF474B4EB465434F0B4
:1017000001064FEA74040AD8D6F50016760D04F0E7
:101710000044F04061FA06F25040F1404840C00AEF
:1017200040EA415021F0004128BF5FEA500550F1E6
:10173000000044EBD12137E045EAC323DB0A45EA48
:10174000C121C90AB6F120050EDD42EA0242120C9F
:10175000C5F1200603FA06F6EB4042EA06056D42A3
:10176000984161F100010DE062FA06F5F240554042
:1017700063FA06FC82EA0C02F3405A406D42904143
:1017800061EB030111F4801F05D1641E620502D0D4
:101790006D004041494121F48011430875F1004337
:1017A00050F1000041EB045170BC70471CEB410F3D
:1017B00015D223F0004352EA43060BD04FEA4C0CFB
:1017C000BCEB410F04D80C0D661E342EB7DDEBE7E1
:1017D000801A994150EA410608BF0021E4E708BF9A
:1017E0001CEB430F28BF6FF00001DDE780B5134805
:1017F00000F0B0F80FF24801016041608160C16003
:101800000161416181610FF23C0242628162C16209
:10181000016341630FF2300282630FF23402C2634C
:101820000164416401BD10B5044800F093F804461A
:10183000206808B9FFF7DAFF204610BD2C0EFF1F05
:10184000000000002E00000066616C73650000005F
:10185000747275650000000091FBF2F303FB121136
:10186000C0E90031704700007047000070B44FF0CD
:10187000004591EA030C44BF6B40FFF701BF00BF76
:10188000841A71EB030603D2001BB1411219734194
:101890004FF4001C1CEB410F34BF7CEB430443E0CE
:1018A0000C0DA4EB1356352E50DC45EAC323DB0A9E
:1018B00045EAC121C912B6F120050DDD63FA05F62E
:1018C000EB4086EA0305124218BF45F00105C01837
:1018D00051F100010CD213E062FA06F5F2405540D6
:1018E000F3415A40B340F3405A408018594107D35E
:1018F00049085FEA30005FEA350528BF45F0010579
:1019000001F58011420875F1004250F1000041EBF1
:10191000045170BC4FF4001C1CEB410F38BF7047E2
:101920000020090D090570471CEB410F10D252EA47
:1019300043060BD0BCEB410F05D80C0DAB43661E24
:10194000342EB5DD02E0AB438018594170BC7047BE
:1019500070BC70477047000000B0034000B00B40FF
:101960000000000000000000000000000000000077
:1019700000000000000000000000000000004E6FAA
:101980006E4D61736B61626C6500000000486172AE
:10199000644661756C740000000000004D656D4D7B
:1019A000616E6167656D656E7400004275734661B6
:1019B000756C740000000000000055736167654697
:1019C00061756C7400000000000000000000000061
:1019D0000000000000000000000000000000000007
:1019E00000000000000000000000000000000000F7
:1019F00000000000000000000000000000000000E7
:101A00000000000000535643616C6C0000000000B1
:101A10000000000044656275674D6F6E69746F72F7
:101A200000000000000000000000000000000000B6
:101A3000000050656E645356000000000000000076
:101A4000005379735469636B0000000000000000CC
:101A5000444D413000000000000000000000004440
:101A60004D41310000000000000000000000444D26
:101A700041320000000000000000000000444D4121
:101A8000330000000000000000000000444D41341D
:101A90000000000000000000000000444D4135003F
:101AA00000000000000000000000444D413600002E
:101AB000000000000000000000444D41370000001D
:101AC0000000000000000000444D4138000000000C
:101AD00000000000000000444D41390000000000FB
:101AE000000000000000444D4131300000000000C3
:101AF0000000000000444D413131000000000000B2
:101B000000000000444D41313200000000000000A0
:101B1000000000444D41313300000000000000008F
:101B20000000444D4131340000000000000000007E
:101B300000444D413135000000000000000000006D
:101B4000444D415F4572726F720000000000004D0D
:101B5000434D00000000000000000000000046545B
:101B6000464C0000000000000000000000526561CB
:101B7000645F436F6C6C6973696F6E004C56445FB1
:101B80004C565700000000000000004C4C5700006D
:101B900000000000000000000000576174636864EA
:101BA0006F6700000000000000524E470000000078
:101BB0000000000000000000493243300000000037
:101BC0000000000000000049324331000000000026
:101BD00000000000000053504930000000000000E9
:101BE00000000000005350493100000000000000D8
:101BF00000000000535049320000000000000000C7
:101C000000000043414E305F4F525F4D425F6275AE
:101C1000660043414E305F4275735F4F6666000059
:101C20000043414E305F4572726F72000000000049
:101C300043414E305F54785F5761726E696E6743FF
:101C4000414E305F52785F5761726E696E674341F3
:101C50004E305F57616B655F5570000000526573D1
:101C60006572766564353100000000005265736569
:101C7000727665643532000000000043414E315FEA
:101C80004F525F4D425F6275660043414E315F4285
:101C900075735F4F666600000043414E315F4572C9
:101CA000726F72000000000043414E315F54785F54
:101CB0005761726E696E6743414E315F52785F576C
:101CC00061726E696E6743414E315F57616B655F4C
:101CD0005570000000526573657276656435390091
:101CE000000000005265736572766564363000004E
:101CF00000000055415254305F52585F5458000064
:101D0000000055415254305F45525200000000001F
:101D10000055415254315F52585F54580000000042
:101D200055415254315F45525200000000000055A9
:101D3000415254325F52585F5458000000005541E0
:101D40005254325F4552520000000000005541528B
:101D500054335F52585F54580000000055415254AC
:101D6000335F455252000000000000554152543488
:101D70005F52585F54580000000055415254345F80
:101D800045525200000000000055415254355F5248
:101D9000585F54580000000055415254355F455279
:101DA00052000000000000414443300000000000E9
:101DB000000000000000414443310000000000002A
:101DC0000000000000434D50300000000000000003
:101DD00000000000434D50310000000000000000F2
:101DE000000000434D5032000000000000000000E1
:101DF000000046544D3000000000000000000000CC
:101E00000046544D310000000000000000000000BA
:101E100046544D3200000000000000000000004366
:101E20004D5400000000000000000000000052546B
:101E30004300000000000000000000000052657335
:101E400065727665643833000000000050495430F4
:101E50000000000000000000000000504954310064
:101E60000000000000000000000050495432000053
:101E70000000000000000000005049543300000042
:101E8000000000000000000050444230000000004C
:101E90000000000000000055534230000000000028
:101EA000000000000000555342444344000000007D
:101EB0000000000000454E45545F313538385F540E
:101EC000696D6572454E45545F5472616E736D69FC
:101ED000740000454E45545F526563656976650040
:101EE0000000454E45545F4572726F72000000005D
:101EF00000493253300000000000000000000000E4
:101F0000534448430000000000000000000000446B
:101F10004143300000000000000000000000444188
:101F2000433100000000000000000000005453494D
:101F30003000000000000000000000004D4347009A
:101F400000000000000000000000004C5054696DCB
:101F50006572000000000000000052657365727633
:101F6000656431303200000000504F52544100008F
:101F70000000000000000000504F525442000000DA
:101F800000000000000000504F52544300000000C9
:101F9000000000000000504F5254440000000000B8
:101FA0000000000000504F525445000000000000A7
:101FB0000000000052657365727665643130380048
:101FC0000000005265736572766564313039000037
:101FD000000052657365727665643131300000002F
:101FE000005265736572766564313131000000001E
:101FF00052657365727665643131320000000052BB
:102000006573657276656431313300000000526596
:102010007365727665643131340000000052657377
:102020006572766564313135000000005265736574
:102030007276656431313600000000526573657256
:102040007665643131370000000052657365727641
:102050006564313138000000005265736572766541
:10206000643131390000000000F00F4040F00F40B3
:1020700080F00F40C0F00F4000F10F40F0000A1D4B
:102080003000180032001801600018186400181A97
:102090006E00181F780013187D00131A8200131C9D
:1020A0008C000E1296000E15A0000E18AA000E1B32
:1020B000B4000E1EC8000C1CE1000B1EFA000A1F23
:1020C000000109080090044000A0044000B0044052
:1020D00000C0044000D0044000A0064000B006400C
:1020E00000C0064000D0064000A00E4000B00E40E8
:1020F000343536376A6E6B6C676D4E4F02040101E2
:10210000DC0DFF1F2C0EFF1FDC0DFF1FDC0DFF1F62
:10211000DC0DFF1FF10BFF1FD80BFF1F000000009D
:1021200000000000000000000000000000000000AF
:10213000000000000000000000000000DFF800F0D8
:102140005D0DFF1F40B2DFF8941331F8201040B24C
:102150000128C0F2698140B2112880F26581DFF860
:1021600080230023137089B2312904DADFF8702349
:102170000023537076E089B2612904DADFF8602326
:10218000012353706EE089B2912904DADFF85023FD
:102190000223537066E089B2C12904DADFF84023D4
:1021A000032353705EE089B2F12904DADFF83023AB
:1021B0000423537056E089B2B1F5907F04DCDFF858
:1021C0002023052353704DE089B2B1F5A87F04DCCC
:1021D000DFF80C230623537044E089B2B1F5C07FC9
:1021E00004DCDFF8FC22072353703BE089B2B1F531
:1021F000D87F04DCDFF8E8220823537032E089B28C
:10220000B1F5F07F03DCB64A092353702AE089B2A6
:10221000B1F5047F03DCB24A0A23537022E089B28D
:10222000B1F5107F03DCAE4A0B2353701AE089B27C
:10223000B1F51C7F03DCAA4A0C23537012E089B26B
:10224000B1F5287F03DCA64A0D2353700AE089B25A
:10225000B1F5347F03DCA24A0E23537002E0A04A9A
:102260000F23537089B21A2903DA9D4A0023937011
:1022700069E089B2332903DA994A0123937062E055
:1022800089B24C2903DA964A022393705BE089B243
:10229000652903DA924A0323937054E089B27E29B8
:1022A00003DA8F4A042393704DE089B2972903DA49
:1022B0008B4A0523937046E089B2B02903DA884A35
:1022C000062393703FE089B2C92903DA844A0723C1
:1022D000937038E089B2E22903DA814A08239370C7
:1022E00031E089B2FB2903DA7D4A092393702AE0A1
:1022F00089B2B1F58A7F03DA794A0A23937022E022
:1023000089B2B1F5967F03DC754A0B2393701AE00E
:1023100089B2B1F5A37F03DA714A0C23937012E0FE
:1023200089B2B1F5AF7F03DC6D4A0D2393700AE0EB
:1023300089B2B1F5BC7F03DA694A0E23937002E0DB
:10234000674A0F23937089B21A2903DA644A00237B
:10235000D37069E089B2332903DA614A0123D3706B
:1023600062E089B24C2903DA5D4A0223D3705BE054
:1023700089B2652903DA5A4A0323D37054E089B23B
:102380007E2903DA564A0423D3704DE089B2972997
:1023900003DA534A0523D37046E089B2B02903DA41
:1023A0004F4A0623D3703FE089B2C92903DA4C4A69
:1023B0000723D37038E089B2E22903DA484A0823B8
:1023C000D37031E089B2FB2903DA454A0923D3707F
:1023D0002AE089B2B1F58A7F03DA414A0A23D37031
:1023E00022E089B2B1F5967F03DC3D4A0B23D3701E
:1023F0001AE089B2B1F5A37F03DA394A0C23D3700E
:1024000012E089B2B1F5AF7F03DC354A0D23D370FA
:102410000AE089B2B1F5BC7F03DA314A0E23D370EA
:1024200002E02F4A0F23D370704710B5040020003C
:1024300040B2FFF787FE2B48007810F0FD002949D5
:1024400008702848007850F0100026490870264887
:10245000B821017025480078C006FBD423480078D5
:10246000C0F38100C0B20228F8D11D48C3781C48CF
:1024700082781B4841781A480078FFF75FFE64B203
:10248000164810EB8400807810F01F00184908707F
:1024900064B2124810EB8400C07810F01F0050F0B6
:1024A000400014490870114800788006FBD50F4899
:1024B00000784006FBD50C48007810F03F000A4930
:1024C00008700A480078C0F38100C0B20328F8D130
:1024D00064B2024830F82400C0B210BD340BFF1FB4
:1024E000780BFF1F014006400040064006400640B2
:1024F000044006400540064038B5040064B265114A
:10250000EDB2002D02D0012D11D021E0A3480068CA
:1025100050F00060A1490860A148006830F09000C8
:102520009F4908609E489E490968016014E09D48E3
:10253000006850F000609B4908609948006830F4DA
:10254000104097490860964895490968016003E082
:102550003321954800F041F964B22000002800F0D2
:102560008980012800F08680032800F083800828F5
:102570004ED0092851D00A2854D00B2857D00C2807
:102580005AD00D285DD00E2860D00F2863D01028B7
:1025900070D0112864D0122867D013286AD014286C
:1025A00068D01A2866D01D2864D01E2862D0202842
:1025B00061D021285FD023285DD024285CD0252835
:1025C0005FD0262862D0272865D0282868D02928FF
:1025D0006BD02A286ED02B2871D02C2874D02D28AF
:1025E00077D02E287AD02F287DD0302800F0858013
:1025F00031287DD0322800F0808033287DD03428E7
:102600007BD03A2879D03D2877D03E2875D075E028
:102610000021202000F074F974E00021212000F056
:102620006FF96FE00021072000F06AF96AE00021ED
:10263000082000F065F965E00021222000F060F933
:1026400060E00021232000F05BF95BE000214020E6
:1026500000F056F956E00021412000F051F951E018
:102660000021982000F04CF94CE00021992000F066
:1026700047F947E046E045E00021802000F040F9BE
:1026800040E00021812000F03BF93BE00021822066
:1026900000F036F936E00021832000F031F931E016
:1026A0000021202000F02CF92CE00021212000F056
:1026B00027F927E00021242000F022F922E0002160
:1026C000252000F01DF91DE00021262000F018F95A
:1026D00018E00021272000F013F913E000212A2040
:1026E00000F00EF90EE000212B2000F009F909E0BE
:1026F0000021112000F004F904E003E09A212A48A7
:1027000000F06BF831BDF8B504000D0064B266113D
:102710000027290049B2200040B200F01CF876B230
:10272000224850F8260000680006F8D576B21F4807
:1027300050F826000069070076B21C4850F82600C1
:10274000006830F0800076B2184951F82610086011
:10275000380080B2F2BD30B440B2421110F01F0315
:1027600052B2124C54F8224049B28D0015F00C05BB
:1027700055F05005A56052B20C4C54F82240042587
:10278000E56052B2094C54F82240DBB213F01F0549
:1027900055F04005256030BC704700003C80044087
:1027A0001880044030800440503C00001004FF1F9B
:1027B000DFF800F01D0CFF1FDFF800F0450CFF1FD5
:1027C000BFF34F8F4648006810F4E0604549084366
:1027D00043490860BFF34F8FFEE738B504000D0092
:1027E000002000F0E5F82A0021003F4800F008F939
:1027F000002000F0FAF84FF47A7000F043F9F2E7A5
:1028000038B504000D00210049B2032000F04FFA52
:10281000200032BD10B50024042000F061FA04202D
:1028200000F094FA002841D1002000F0C1F8042003
:1028300000F08CFA012801D101200400002000F0F2
:10284000D4F82A4800F0DCF84FF4FA7000F01AF9D6
:10285000E4B2012CEBD1042000F078FA0028E6D194
:10286000042000F073FA002806D1002000F0BDF823
:10287000642000F007F9F3E7042000F067FA01286C
:1028800006D1002000F0B1F8322000F0FBF8F3E7A9
:10289000174800F0B5F8FFF78BFF642000F0F2F85E
:1028A0000020FFF789FFFFF78BFFC0E710BD10B5D1
:1028B00010480468012000F07BF8012000F095F832
:1028C000E4B20F200C4900FB0412E4B221000B48D3
:1028D00000F096F84FF47A7000F0D4F8EDE70000BD
:1028E0000CED00E00400FA05CC3C00007C3D00004B
:1028F000003D000004ED00E01804FF1FA42E0000BE
:1029000010B4294A12684FF40073C0B24409A340BE
:102910001A43254B1A60C0B24211244B53F82220AF
:10292000012310F01F04A340C2F8A030C0B210F081
:102930001F02C0B243111D4C54F8233043F822103B
:1029400010BC704710B4184A12684FF40073C0B23C
:102950004409A3401A43144B1A60C0B24211134BEE
:1029600053F82220012310F01F04A340C2F8A03026
:1029700031F4E061C0B210F01F02C0B243110B4C41
:1029800054F8233053F8222012F4E0621143C0B20D
:1029900010F01F02C0B24311044C54F8233043F826
:1029A000221010BC70470000388004407C0BFF1FD1
:1029B00010B5040064B2042C07DA0122012164B2CC
:1029C0000E48205C00F0DAF90EE00420040020003C
:1029D000441E40B2002807D00122012164B20748FA
:1029E000205C00F0CBF9F2E710BD10B5040064B232
:1029F0000248205C00F019FA10BD0000A80BFF1F70
:102A00000EB400B582B003A90091024600AB0121CB
:102A1000034878440A30FDF7FFFC06BC5DF810FB64
:102A20003913000030B4134C246854F08074114DF5
:102A30002C60114C246854F001040F4D2C600F4C95
:102A4000246821000E4C24684FF47A7594FBF5F449
:102A500004FB00F423005C1822008A4203D2074CD6
:102A60002468A242FBD3054C24689442FBD330BCBB
:102A700070470000FCED00E0001000E0041000E0F2
:102A8000D00DFF1F10B504002000441E002804D004
:102A90004FF47A70FFF7C6FFF6E710BD2DE9F84353
:102AA00004000D0064B2002C08D0022C2CD018D3E6
:102AB000042C4FD03BD3052C5FD071E0DFF8080227
:102AC000006850F48060DFF8001208604FF4407135
:102AD0006620FFF715FF4FF440716720FFF710FFE6
:102AE0005EE0DFF8E401006850F40060DFF8D81120
:102AF00008604FF440714320FFF702FF4FF440712C
:102B00004420FFF7FDFE4BE0DFF8BC01006850F405
:102B10008050DFF8B41108604FF440716320FFF774
:102B2000EFFE4FF440716220FFF7EAFE38E0DFF875
:102B30009801006850F40050DFF88C1108604FF4E1
:102B400040715020FFF7DCFE4FF440715120FFF739
:102B5000D7FE25E0DFF87401006850F48060DFF8EC
:102B60006C1108604FF440714E20FFF7C9FE4FF41E
:102B700040714F20FFF7C4FE12E0DFF850010068FB
:102B800050F40060DFF8441108604FF44071892070
:102B9000FFF7B6FE4FF440718820FFF7B1FEFFE764
:102BA00064B2DFF82C0150F82400C07810F0F30074
:102BB00064B2DFF81C1151F82410C87064B24448A4
:102BC00050F8240064B2424951F824108978817089
:102BD00064B2002C02D064B2012C06D13D480068DA
:102BE0004FF47A714843814605E03B4800684FF452
:102BF0007A71484381462801B9FBF0F00600B6B26D
:102C0000B6F5005F02DB41F6FF700600B9FBF5F098
:102C1000B6B2B0EB06100700BFB2202F04DB40F2C3
:102C200003112E48FFF7D9FD64B2294850F824005B
:102C3000007810F0E0008046B6B2300A10F01F00B5
:102C400050EA080064B2224951F82410087064B2B6
:102C50001F4850F82400467064B21D4850F8240004
:102C6000807A10F0E000804664B2194850F82400E1
:102C700017F01F0151EA0801817264B2144850F83C
:102C80002400007C50F0880064B2114951F82410EF
:102C9000087464B20E4850F82400C07850F00C005C
:102CA00064B20B4951F82410C870BDE8F18340B2FA
:102CB000074A52F8202012791206F8D540B2044A89
:102CC00052F82020D171704734800440288004409D
:102CD000900BFF1FD00DFF1FD80DFF1F203C0000E1
:102CE00010B5040064B2082C0DDA0022002164B291
:102CF0002148205C00F042F8032164B21E48205CA9
:102D0000FFF720FE14E0082004002000441E40B21B
:102D100000280DD00022002164B21748205C00F08A
:102D20002DF8032164B21448205CFFF70BFEECE79A
:102D300010BD10B5040064B20F48205C00F091F89B
:102D4000002801D1002000E0012010BD10B50400D2
:102D5000200040B2FFF7EDFF00280AD10A20FFF75C
:102D600091FE200040B2FFF7E4FF002801D10020CF
:102D700000E0012010BD0000AC0BFF1F70B5040087
:102D80000D0016004FF480712000C0B2FFF7B8FDAF
:102D90006DB2002D11D1E4B26011404951F820000C
:102DA000E4B261113D4A52F821104969012214F040
:102DB0001F039A409143416136E0E4B26011374904
:102DC00051F82000E4B26111344A52F821104969E7
:102DD000012214F01F039A4011434161F6B2002E04
:102DE00011D1E4B260112D4951F820000068012191
:102DF00014F01F0291408843E4B26111274A52F84F
:102E00002110086010E0E4B26011244951F820005C
:102E10000068012114F01F0291400843E4B26111DF
:102E20001E4A52F82110086070BD10B50400E4B2CB
:102E300060111A4951F82000406914F01F01C84080
:102E4000C00703D47B211648FFF7C7FCE4B260112A
:102E5000124951F82000012114F01F029140C16075
:102E600010BD10B50400E4B260110C4951F8200007
:102E7000406914F01F01C840C00703D58C210848E1
:102E8000FFF7ABFCE4B26011044951F8200000697F
:102E900014F01F01C84010F0010010BD200BFF1FEF
:102EA000F03B00000A2A2A2A2A64656661756C7460
:102EB0005F69737220656E7465726564206F6E2041
:102EC000766563746F722025642A2A2A2A2A0A0AE0
:102ED000257320496E74657272757074000000006D
:102EE0002DE9F04D1746504A504B00F0E9F80446E2
:102EF0000D461CD84E4EDFF83C8132464346FEF765
:102F000027F900224C4BFEF7B1FC82468B46324635
:102F1000434620462946FEF7A9FC02460B4650468A
:102F20005946FEF75BFA04460D4647F00107204676
:102F300029460022414BFEF739FA05D301224FF012
:102F4000795300F0BDF853D822462B46FEF700F91E
:102F5000064688463246434620462946FEF7F8F89C
:102F600082468B463648374932464346FEF7F0F8EC
:102F7000354A364BFEF77AFC32464346FEF7E8F810
:102F8000334A344BFEF772FC52465B46FEF7E0F8DC
:102F900022462B46FEF76AFC04460D462E482F4972
:102FA00032464346FEF7D4F82D4A2E4BFEF75EFC20
:102FB00032464346FEF7CCF82B4A2C4BFEF756FC24
:102FC00032464346FEF7C4F8294A2A4BFEF74EFC28
:102FD00032464346FEF7BCF80022274BFEF746FC7C
:102FE00002460B4620462946FEF7F8F904460D46F0
:102FF000B80748BF85F0004517F007000BD00FF267
:10300000800101EBC0022B46D2E900012246FEF707
:103010002DFC04460D46380747BF85F00041204689
:1030200020462946BDE8F08D57CD9E5E1426D13F3F
:10303000AA4C58E87AB6FB3F0000F0BF000040BE43
:10304000845D57134B57B03FB2934C19ED5EE43F8C
:10305000BEDE02B90240F83FDE39028FC7C0743FBE
:103060008AAB1283000CC83F24D7E508B6D8F03FDE
:103070000F34580E5895FD3F0000F03F000000004F
:10308000000000000000000066732D3852C1E03FD0
:10309000182D4454FB21F93F66732D3852C1F03F7F
:1030A000182D4454FB21F93F66732D3852C100405E
:1030B000182D4454FB2109403FD038C6A6F10440E6
:1030C0004FF4001C1CEB410F94BF1CEB430F09E0B5
:1030D00041EA030C50EA4C0C52EA0C0C03D28B422E
:1030E00008BF8242704714BF994290427047000067
:1030F000DFF800F0DB2700004B48F02101704A4860
:1031000000780006FBD5484800787121084201D0BC
:10311000002000E0012070474448006850F400207F
:10312000424908604248006850F400204049086065
:103130003D4800780006FBD53B48F0210170704700
:1031400010B582B00400A4B24FF4006000FB04F09C
:1031500000903848092101709DF802003649087036
:103160009DF801003549087035489DF80010017040
:10317000FFF7C2FF002801D100200CE0A4B2002C10
:1031800008D17FF0010240F20C41200080B200F033
:1031900003F800E0012016BD7CB504000D00160008
:1031A000A4B24FF40060ADB200FB04500190ADB288
:1031B000042095FBF0F101FB1051002903D0E92117
:1031C0002048FFF795FFADB2B5F5006F03DDEB21A9
:1031D0001C48FFF78DFF9DF80600174908709DF801
:1031E00005001649087016489DF8041001700096F5
:1031F0009DF80300144908709DF8020013490870F7
:103200009DF801001249087012489DF800100170E5
:10321000084806210170FFF76FFF002801D1002048
:1032200000E0012076BD00000000024004F00140F3
:1032300008F001400700024006000240050002407D
:1032400004000240C03B00000B0002400A000240A4
:103250000900024008000240F0B4114E3668340004
:103260000F4E366856F47F060D4F3E600E0616F080
:10327000706656EA0076170517F470073E431F0480
:1032800017F470273E43074F3E6000263500EDB22D
:103290009D4201D26D1CFAE7014E3460F0BC7047CC
:1032A00000F001404480044080B52420FFF724F959
:1032B0002520FFF721F92620FFF71EF92620FFF72A
:1032C0001BF94FF416510020FFF7E8FB01BD80B554
:1032D00003212420FFF717FA0021434AC2E9000125
:1032E00003212520FFF70FFA0021404AC2E900011F
:1032F00003212620FFF707FA00213D4AC2E9000119
:1033000003212620FFF7FFF900213A4AC2E9000114
:1033100001BD2DE9F843344AD2E9000100F080F8FC
:10332000354900F0AFF8354900F0EEF800F06AF9E1
:103330005FF06632324BFDF70BFF00F08BF90600B1
:103340002A4AD2E9000100F06BF82B4900F09AF804
:103350002A4900F0D9F800F055F95FF06632284BA1
:10336000FDF7F6FE00F076F90700214AD2E90001E8
:1033700000F056F8204900F085F8204900F0C4F824
:1033800000F040F95FF066321D4BFDF7E1FE00F002
:1033900061F980463000310000F0A4F904003800E3
:1033A000390000F09FF9210000F06CF800F02AF9D4
:1033B00000F004FA04000D00404600F023F922005A
:1033C0002B00FEF70BF800F071FA0E4A0E4BFEF7D9
:1033D00005F800220D4BFDF7BBFE00F03BF98146DE
:1033E000BDE8F18300000000B00DFF1FB80DFF1F06
:1033F000C00DFF1FC80DFF1F000018C200FF7F4750
:1034000066660A404AD8124DFB210940008066409A
:1034100080B5FFF749FFFFF75AFFFFF77AFFFAE79A
:10342000002940F10B80F4464942404271F100010D
:1034300000F00AF850F000406047000050EA010236
:1034400000F00E80094200BF0BD1B0FA80F1884035
:10345000C1F19D01C905020672F1004241EB102045
:103460007047B1FA81F241409040C2F1200261FA06
:1034700002F181EA000018BF40F0010002F19D0155
:10348000E8E7000090EA010F44BF81F0004100F03E
:1034900057BA00BF421A3CBF801A89184FF0004C3F
:1034A000C0F3C752FF2A24D0C1F3C75313B3D21AB3
:1034B000D2F1190327DD4CEA01214CFA03F321EA8A
:1034C0000303D140C20D4CEA0020401834BF20EA6B
:1034D0000C004CEA5000D20553EA006373EB0C0C6D
:1034E00052EB1020420012F1807F38BF7047C00DB0
:1034F000C0057047490212BF9A4200EB5120F8E71D
:10350000D2F11703D9D5704710B5FF2313EAD05471
:103510001DBF13EAD1529C429A4239E0A41ADA073D
:1035200080EA0103134042EA012142EA0020421AE4
:103530003CBF641E01EB4202090AB2FBF1FE01FB33
:103540001E221202B2FBF1F001FB10226EF30F20DB
:103550001202B2FBF1FE4EEA00207F3406DDFE2CA3
:1035600024DA53EA500050EBC45010BDD4F10204E9
:1035700001FB1E2240F08071192C1DDC21FA04F0A1
:10358000C4F12004A140114371F10042584110BD23
:103590009C421ABF03EAD1529A420FE080EA010E20
:1035A0000EF00043400004D0490016D143F0FF4024
:1035B00010BD490008BFD343180010BD9C4205D17F
:1035C000D21AF7D001F00041484010BD4A0212BFA4
:1035D0000846484000F0004010BD4AB90902B1FA5F
:1035E00081F2914044B1A418C00140F000409EE730
:1035F000C90141F0004152420002B0FA80F4A040FB
:10360000141B94E75FF0FF0C1CEAD05114BF614516
:1036100006E0C110400721F0E04101F16051704720
:1036200079B900F0004100020AD0B0FA80FC00FA3B
:103630000CF001F16051A1EB0C5101EBD0214005E0
:10364000704741020CBF40F4E0016FF00001002020
:10365000704700004FEAF17CBCF1E04C2CBFBCF598
:10366000001F11E05FEA4C0C34BFBCF17F5F2EE01D
:103670005FEA9C0C4FEA0C1C4FEA3C0CC10071F154
:1036800000414CEB50707047C90241EA5051C002F2
:1036900018BF41F0010141F000414FEA6C50C0F108
:1036A0000900212810D240EACC7CCCF1200C11FA80
:1036B0000CF070F10040CCF1200C21FA0CF00CF071
:1036C000004C40EB0C0070474FEACC70704749004B
:1036D00011F5001F04D84FEACC10FF30C005704729
:1036E000C8177047FF2212EAD05C1DBF12EAD153FF
:1036F000944593422BE09C44D30780EA01021A4090
:1037000043EA002043EA0121A1FB0030410038BF19
:1037100040007CF17F010BDBFE294ADA5B0842EABC
:10372000C15153EA006373F1004C51EB1020704714
:10373000D1F1080CDCF120012FDB5B0810FA01F15C
:103740000B4373F1004120FA0CF05041704794454F
:103750001CBF02EAD153934280EA010202F0004208
:103760001DD0400019D0490017D05BB9634514D073
:103770000902B1FA81F39940BCEB030CC00140F09F
:103780000040C1E70002B0FA80FC10FA0CF0B3EB85
:103790000C0CC90141F00041B6E710007047400031
:1037A0000AD0490008D010F1807F94BF11F1807FCA
:1037B00002E042F0FF407047D043704740F2FF7C88
:1037C0000B0D4DD0634566D230B421EA035141F46C
:1037D000801103F2FD3C5FEA5C0C01D30018494103
:1037E000890041EA907180004FF440140023E20206
:1037F000D50AB1F5100107D46D081DD2091B641953
:1038000000184941491BF7D56D080AD20919641BF4
:1038100000184941491BEFD56D08F7D301E0520864
:1038200017D0C01861419B1AAC4100184941801A59
:10383000A941F4D452080AD0C01AA1419B186C4186
:1038400000184941801AA941E9D45208F4D15B1CFF
:103850006C4161084FEA330001EB0C5130BC7047FA
:1038600050EA0103FBD030B4B1FA81F311B9B0FAD8
:1038700080F41B190B3BB3F120042FBF00FA04F1B5
:103880009940C3F1200420FA04F438BF2143984042
:10389000D3F101039DE76345E1D011F5801FDED828
:1038A00050EA4101DBD0D94300F0B6B813B5C1F3FB
:1038B0000A5240F2FF739A4208D0002A04BF09035B
:1038C00050EA11300ED1DDE900011CBD090350EAB8
:1038D0001130F8D101980028154801D515491CBDB3
:1038E00015491CBDDDE9000100220023FDF75EFD46
:1038F0003DBF81F00041CDE9000108240024DDE94D
:10390000000101220D4BFFF7DBFB09D81946DDE969
:1039100000230020FDF762FDCDE9000184F00204E0
:10392000DDE90001224602B0BDE81040FFF7D8BA39
:10393000182D4454FB21F9BFFB21F93F0000F03F53
:10394000431A4FF000423EBF5340C01AC91800BF8F
:10395000D3095FEAD05C13EB400F34BFB3EB410FE8
:1039600040E07CEBD1530CD342EA012122D8D1EBC9
:10397000402009D3400A28BF5FEA500140EBCC50F9
:103980007047401A15D04002B0FA80F2521C9040A5
:10399000400A4FEA3C23B3EB026384BF00EB7300A1
:1039A00007E040F400001A16DB07C2F10102D04024
:1039B00018437047182BFCDC31FA03F202FA03F3C8
:1039C000591A38BF42F00102D2EB40203CBF400000
:1039D000ACF1010C5FEACC5CC20572F100414CEB2A
:1039E0005020704713EB400F0FD24B0009D0ACEBC7
:1039F000D153022B03DB4902172BDDDD70479143C6
:103A0000401A4300D5D10020704713EB410FD0D3AB
:103A10006FF00000704700001FB500F003F821218F
:103A200001601FBD0148FDF795BF0000B40EFF1FE8
:103A300080B500F08FF800F025F800F005F8FEF7EB
:103A4000E9FEFFF7E5FCFEE780B50320FEF7EDFC9D
:103A500032490860314800684FF47A714843304970
:103A600008602F4800682F490968C1F30361491CA9
:103A7000B0FBF1F02C4908605FF4E1310320FFF75F
:103A80000DF801BD2DE9F8432848294988420DD099
:103A900000208046B8F5826F08D22448244951F8A6
:103AA000281040F8281018F10108F3E71F4800F02B
:103AB00071F8204807002048060020480400A01B99
:103AC00080464046B0F10108002804D030783870B4
:103AD000761C7F1CF5E71A4881461A480500B5EBAD
:103AE000090080464046B0F10108002805D00020BA
:103AF00089F8000019F10109F4E713481349144A41
:103B0000531A98464346B3F10108002B04D00B78B2
:103B10000370491C401CF5E7BDE8F183D40DFF1F7D
:103B2000D00DFF1F44800440D80DFF1F0000FF1F71
:103B3000000000001004FF1F581900003C21000085
:103B4000B00DFF1F2C0EFF1FF40BFF1FF030000005
:103B5000A832000080B500F008F80C4800884FF645
:103B6000FE7108400949088001BDEFF3118072B66B
:103B700007494CF220520A8005494DF628120A8066
:103B8000C0B2002800D162B6704700000020054096
:103B90000E20054010B504004FF4007094FBF0F1C6
:103BA00001FB1041002903D01E210348FEF715FE3A
:103BB0000248046010BD00007C3C000008ED00E0FD
:103BC0005C5C7073665C486F6D655C4465736B74B8
:103BD0006F705C534448435C436869705C73726304
:103BE0005C4D4B36305F666C6173682E630000007D
:103BF0005C5C7073665C486F6D655C4465736B7488
:103C00006F705C534448435C436869705C737263D3
:103C10005C4D4B36305F6770696F2E6300000000AB
:103C20005C5C7073665C486F6D655C4465736B7457
:103C30006F705C534448435C436869705C737263A3
:103C40005C4D4B36305F756172742E63000000006E
:103C50005C5C7073665C486F6D655C4465736B7427
:103C60006F705C534448435C436869705C73726373
:103C70005C4D4B36305F6164632E63005C5C707337
:103C8000665C486F6D655C4465736B746F705C5304
:103C90004448435C436869705C7372635C6D69732C
:103CA000632E630010B5074979441831064C7C44F3
:103CB000163404E00A68081D511888470146A142DD
:103CC000F8D110BD2C00000038000000417373656E
:103CD0007274696F6E206661696C656420696E201C
:103CE0002573206174206C696E652025640A0000CC
:103CF000A7D2FFFF7C000000B00DFF1F00000000F6
:103D00000ABDF8D0D0BDE2CBF8B2D9D7F7A3ACC783
:103D1000EBD6D8D0C2CBA2C8EBB9CCBCFE00000019
:103D200000F009F8002801D0FFF7BCFF0020FFF7E2
:103D30006FFB00F002F80120704700F001B80000AE
:103D40000746384600F002F8FBE70000014918205A
:103D5000ABBEFBE72600020038B504460D462846F8
:103D600000F006F8A84218BF0024204632BD00002B
:103D70000149FEF745BD00BFB40BFF1F0ABDF8C8DF
:103D8000EBCBC0D1ADBBB7B5C8B4FDA3A10000005B
:103D9000C046C046C046C046FFF7C2FF0000000054
:103DA0000000000000000000000000000000000013
:103DB0000000000000000000FFFFFFFFFFFFFFFF0B
:103DC00000000000000000000000000000000000F3
:103DD00000000000000000000000000000000000E3
:103DE00000000000FFFFFFFFFFFF000000000000D9
:103DF00000000000000000000000000000000000C3
:103E000000000000000000000000000000000000B2
:103E100000000000000000000000000000000000A2
:083E200000000000000000009A
:0400000500003D9129
:00000001FF
