:10000000F8FF002011040000A51100003F090000C6
:10001000A5110000A5110000A5110000A511000008
:10002000A5110000A5110000A5110000A5110000F8
:10003000A5110000A51100003D0900003B090000CA
:10004000C10A0000A5110000A5110000A5110000C3
:100050009F0A0000A5110000A5110000A5110000D5
:10006000A5110000A5110000A5110000A5110000B8
:10007000A5110000A5110000A5110000A5110000A8
:10008000A5110000A5110000A5110000A511000098
:10009000A5110000A5110000A5110000A511000088
:1000A000A5110000A5110000A5110000A511000078
:1000B000A5110000A5110000A5110000A511000068
:1000C000A5110000A5110000A5110000A511000058
:1000D000A5110000A5110000A5110000A511000048
:1000E000A5110000A5110000A5110000A511000038
:1000F000A5110000A5110000A5110000B508000021
:10010000A5110000A5110000A5110000A511000017
:10011000A5110000A5110000A5110000A511000007
:10012000A5110000A5110000A5110000A5110000F7
:10013000A5110000A5110000710A0000730A00005B
:10014000A5110000A5110000A5110000A5110000D7
:10015000E9080000D7080000130A0000A5110000FC
:10016000A5110000A5110000A5110000A5110000B7
:10017000A5110000A5110000A5110000A5110000A7
:10018000A5110000A5110000A5110000A511000097
:10019000A5110000DF0A0000A5110000A511000054
:1001A000F3090000A51100004D090000A511000091
:1001B000A5110000A5110000A5110000A511000067
:1001C000A5110000A5110000A5110000A511000057
:1001D000A5110000A5110000A5110000A511000047
:1001E000A5110000A5110000A5110000A511000037
:10040000FFFFFFFFFFFFFFFFFFFFFFFFFEFFFFFFFD
:1004100062B64FF000004FF000014FF000024FF0C5
:1004200000034FF000044FF000054FF000064FF0BE
:1004300000074FF000084FF000094FF0000A4FF09E
:10044000000B4FF0000C00F045FFFEE710B50C4626
:100450001168012902D0022904D008E05168C0B215
:10046000884704E0916808709068401C906020689C
:10047000401C206010BD30B4002400F8014B002A5D
:10048000096812D091B191FBF3F203FB121100291C
:1004900046BFC94301F1310501F130051146641C25
:1004A00000F8015B0029EED114E019B93021017088
:1004B00001240FE0B1FBF3F203FB12110A2934BF50
:1004C00001F1300501F137051146641C00F8015BAC
:1004D0000029EFD1204630BC7047F8B504460D46E0
:1004E00016461F46AC4207DA3A4631463020FFF73F
:1004F000ADFF641CAC42F7DBF1BDF8B504460D4618
:1005000016461F46AC4207DA3A4631462020FFF72E
:100510009DFF641CAC42F7DBF1BD2DE9F04F8DB0BF
:1005200005460020934600900C4604E02A4600A9A8
:10053000FFF78CFF641C2078002800F09C812528A0
:100540000AD00A28F2D12A4600A90D20FFF77EFF23
:100550002A4600A90A20EBE7002701E047F0100730
:1005600014F8010F20280ED02328F7D02B2807D00D
:100570002D2802D0302809D00BE047F00107EFE723
:1005800047F00207ECE747F00407E9E747F0080700
:10059000E6E7611E4FF0000805E008EB880200EB7B
:1005A0004200A0F1300811F8010FA0F13002092A31
:1005B000F3D92E2804D111F8010F30380928FAD9BF
:1005C0004C1E14F8010F4C2818BF682802D06C2864
:1005D00018BF641E14F8010F582854D0622800F088
:1005E000E780632800F01781642818BF692811D0BC
:1005F0006E2800F03B816F2800F0D580702800F055
:10060000DC80732800F00B81752800F0DB807828EF
:1006100039D08BE75BF8040B02900A23012202A970
:1006200003A8FFF728FF824603A80AEB00090298F7
:10063000002848BF2D2606D4B80748BF2B2602D471
:10064000780703D520260AF1010A00E000263807C2
:1006500008D5002E00F0C5802A4600A93046FFF7D5
:10066000F5FEBEE0F80707D42B4600AA41465046E7
:10067000FFF743FF1EB9C4E0002E00F0C2802A46F7
:1006800000A93046C4E05BF8040B0190102300225F
:1006900001A903A8FFF7EFFE824603A80AEB0009B1
:1006A0000026380721D5F80617D52A4600A930209C
:1006B000FFF7CCFE2868012808D0022809D1A868D5
:1006C00078210170A868401CA86002E07820696861
:1006D00088470098401C009001262B4600AA4146FE
:1006E0005046FFF7FAFEC24632E0F80730D4F8066B
:1006F00048BF0AF1020A2B4600AA41465046FFF7BE
:10070000FCFEF80624D52868012808D0022809D163
:10071000A86830210170A868401CA86002E0302061
:10072000696888470098401C00902868012808D014
:10073000022809D1A86878210170A868401CA86027
:1007400002E07820696888470098401C00900126E4
:10075000F80656D5002E54D12868012808D0022862
:1007600009D1A86830210170A868401CA86002E087
:100770003020696888470098401C0090286801284C
:1007800008D0022809D1A86878210170A868401C07
:10079000A86002E07820696888470098401C0090B3
:1007A0000AF1020A2DE05BF8040B019008230DE02A
:1007B0005BF8040B0190022308E05BF8040B019046
:1007C000102303E05BF8040B01900A23002201A927
:1007D00003A8FFF750FE824603A80AEB000938077A
:1007E00007D52B4600AA41465046FFF776FEC24683
:1007F00007E0F80705D42B4600AA41465046FFF70C
:100800007CFE99F8000038B319F801092A4600A9BE
:10081000FFF71CFEF5E75BF8040BC0B286E65BF859
:10082000049BB9F1000F3FF485AE484600F038F85C
:100830008246F8070CD42B4600AA41465046FFF7E3
:100840005CFE05E019F8010B2A4600A9FFF7FEFD42
:1008500099F800000028F5D1F8077FF56BAE2B461C
:1008600000AA41465046FFF748FE63E65BF8040BDA
:10087000009901605EE600980DB0BDE8F08F0EB4FF
:1008800000B584B00121009105AA044901910146F7
:1008900000A8FFF742FE04B05DF810FBF51200005F
:1008A000002108B97047491C10F8012B002AFAD121
:1008B0000846704710B572B6012000F0E5F904460D
:1008C0000FF26421012000F0F1F92146012000F02F
:1008D000E3F962B610BD8748016841F0010101608B
:1008E00001218548017070478448016841F0010189
:1008F00001600122824841790270491C4171CA0796
:100900005CBF01224270C9B20A46032392FBF3F393
:1009100003EB4303D31A04BF01238370032319425B
:1009200004BF0123C3703F23194204BF0121017199
:10093000C02A04BF0021417170477047704710B54D
:100940000FF2F8142046FFF79AFFFBE76D496E4857
:100950000A68D20510D50A6842F480720A600289DA
:1009600012B90122027007E00E2A05DB0022028183
:1009700002704278521C42700A68920510D50A68CB
:1009800042F400720A60428912B90122827007E0C3
:100990000E2A05DB002242818270C278521CC2708E
:1009A0000A68520510D50A6842F480620A6082899A
:1009B00012B90122027107E00E2A05DB00228281B2
:1009C00002714279521C42710A68120510D50A68F8
:1009D00042F400620A60C18911B901218171704736
:1009E0000E2905DB0021C1818171C179491CC171CA
:1009F000704746480168C90703D5016841F0010105
:100A000001600168490503D5016841F48061016016
:100A100070473F48016841F0010101603A4801898F
:100A2000027802B1491C89B29729A4BF0021017044
:100A300001818278418902B1491C89B29729A4BFFA
:100A40000021817041810279818902B1491C89B2FA
:100A50009729A4BF0021017181818279C18902B1E6
:100A6000491C89B29729A4BF00218171C1817047B7
:100A7000704738B5274C656C00206064E80707D5DF
:100A8000206820F0400020600FF2D000FFF7F7FE52
:100A9000A80703D5A06820F04000A06031BD10B5C4
:100AA0001D4CA06940F01000A061042000F021F965
:100AB000206820F01000206001211848017010BD4E
:100AC00080B50FF2A800FFF7DAFE1348816941F004
:100AD00001018161016841F00101016001BD10481F
:100AE000016841F0800101600E480178491C0170E5
:100AF000704700001C710340B604FF1F0C710340D7
:100B0000B004FF1FA0C00440A004FF1FA0A0044029
:100B10002C7103400C9003400C800040B704FF1F71
:100B200000000440B804FF1F0AC4E3B7A2CBCDB550
:100B3000C4CAFDBEDDCEAAA3BA0000000A2A2A2A32
:100B40002AD3B2BCFEC9CFB7C3B4EDCEF321212165
:100B50002A2A2A2A2A0D0A0A000000000A46544DB1
:100B600031B7A2CBCDD6D0B6CF0A0000444D415FFD
:100B70004348305F48616E646C65720A0000000093
:100B8000F0B4052841D8DFE800F0030D17212C361A
:100B90004E4A4FF44073536013604D4AD36843F498
:100BA00080631CE04B4A4FF4407313605360484A23
:100BB000D36843F4006312E0474A4FF44073536034
:100BC0001360434AD36843F4805308E0414A4FF42A
:100BD0004073536393633E4AD36843F40053D36036
:100BE00013E03E4A4FF4407353641364384A136869
:100BF00043F4806308E0394A4FF440735360136054
:100C0000334A136843F400631360354B024653F8CC
:100C10002240E57805F0F305E570002553F8224001
:100C2000A570441EA441012A18BF00204FF47A7514
:100C300050EAD47014BF2B482B480068684353F81F
:100C400022502E780901B0FBF1F427043F0E06F084
:100C5000E00607F01F073E432E70400153F8225074
:100C60006C70B0FBF1F053F82240A57A05F0E00576
:100C700000F01F002843A07253F82200C17841F011
:100C80000C01C170F0BC7047154951F82020137950
:100C90009B06FCD5D0797047114A52F8203093F862
:100CA00004C05FEA0C6CFAD5D971704730B40C4AB5
:100CB00004E025792D06FCD5E371491C0B7852F828
:100CC0002040002BF5D130BC704700003890044024
:100CD000288004400CB0044008C0044020D00440E8
:100CE0004004FF1F9404FF1F9C04FF1F1549086068
:100CF000704710B504465C2CA4BF0FF25000FFF7FC
:100D0000BEFD201104EBD060401103D0022811D0A9
:100D100008D310BD0121A4EB401001FA00F00A49EC
:100D2000086010BD0121A4EB401001FA00F0064953
:100D3000486010BD0121A4EB401001FA00F0024907
:100D4000886010BD08ED00E080E100E00A455252E5
:100D50002120496E76616C69642049525120766188
:100D60006C75652070617373656420746F206469AD
:100D70007361626C65206972712066756E63746957
:100D80006F6E210A00000000DFF800F05904FF1F19
:100D900070B5002800F08C8030281ED0322826D074
:100DA000602827D0642849D06E2826D0782827D0FC
:100DB0007D2828D0822829D08C282AD096282BD08C
:100DC000A0282CD0AA282CD0B4282DD0C8282ED0CA
:100DD000E1282ED0FA282ED02FE018210022574CDF
:100DE000217062700021A170332829DA34E01821C3
:100DF0000122F4E718211822F1E718211F22EEE75B
:100E000013211822EBE713211A22E8E713211C22F1
:100E1000E5E70E211222E2E70E211522DFE70E217F
:100E2000EFE70E211B22DAE70E211E22D7E70C2165
:100E3000EDE70B21F9E70A21E0E764201821E3E759
:100E40006528B8BF012107DB9728B8BF022103DB63
:100E5000C928B4BF03210F21E1701A28E17821715C
:100E6000B8BF002023DB3328B8BF01201FDB4C288C
:100E7000B8BF02201BDB6528B8BF032017DB7E2824
:100E8000B8BF042013DB9728B8BF05200FDBB028BC
:100E9000B8BF06200BDBC928B8BF072007DBE22854
:100EA000B8BF082003DBFB28B4BF09200F20607106
:100EB0003221224C224E6078183080B2484321788B
:100EC000491C89B290FBF1F5002070701D48016843
:100ED00041F0805101601C48017841F080010170AF
:100EE00098203070B079C006FCD4B079C0F381008E
:100EF0000228FAD1207800F01F00307100207071B4
:100F000063792279E178A078FFF73EFF607800F0FE
:100F10001F0040F040007071B0798006FCD5B079B8
:100F20004006FCD5307800F03F003070B079C0F357
:100F300081000328FAD1E8B270BD00BF3804FF1F5A
:100F4000004006403480044008C0074062B38B076D
:100F500008D0521E11F8013B00F8013B00F024803C
:100F60008B07F6D1830740F0208000BF103A07D3EB
:100F700030B4B1E83810103AA0E83810F9D230BCDB
:100F8000530724BFB1E80810A0E8081044BF51F887
:100F9000043B40F8043BD20724BF31F8022B20F871
:100FA000022B44BF0B7803707047083A07D3B1E8AF
:100FB0000810083A40F8043B40F804CBF7D2530736
:100FC000E4E750F8041B61B150F8042BD30744BF89
:100FD000A9F101039A18002342F8043B091FFAD132
:100FE000EFE7704710B51149114C8C4204D04FF413
:100FF00082522046FFF7BAFF2046FFF777FE0D49E1
:101000000D48421A1CBF0D48FFF7A0FF0C480D49C0
:10101000091A18BF00F01EF80B490C48421A04D0F8
:10102000BDE810400A48FFF791BF10BD0000000066
:101030000000FF1F18110000601100001004FF1FC6
:101040009404FF1FB904FF1FE411000020120000E8
:101050005804FF1F002200F001B80000401810F0F3
:10106000030308D0C91A1FD3DB0748BF00F8012DBE
:1010700028BF20F8022D130030B41446154610394D
:1010800028BF20E93C00FAD8490728BF20E90C0016
:1010900048BF40F8042D890028BF20F8022D48BF22
:1010A00000F8012D30BC7047C91818BF00F8012D99
:1010B000CB0728BF00F8012D7047000070B4154C15
:1010C00004EB800542F480766D6945F82160D50710
:1010D00003D5032A18BF132A0AD154F82000426905
:1010E000012303FA01F122EA0101416170BC70475A
:1010F00054F82000012202FA01F142690A434261D8
:10110000012B02680CBF114322EA0101016070BC8F
:10111000704700001004FF1F00F00F4040F00F4028
:1011200080F00F40C0F00F4000F10F4000900440ED
:1011300000A0044000B0044000C0044000D00440BF
:101140000B1F00000009000000A0064000B0064090
:1011500000C0064000D0064000A00E4000B00E4087
:1011600038B50E4D0E4C286840F478502860C820E1
:10117000FFF70EFE60604FF47A7111FB00F0206003
:10118000E968C1F30361491CB0FBF1F0A0604FF4C2
:101190009641BDE834400120FFF7F2BC388004409E
:1011A0009404FF1F024801780FF20800FFF767BBA5
:1011B00004ED00E00A2A2A2A2A64656661756C74C7
:1011C0005F69737220656E7465726564206F6E204E
:1011D000766563746F722025642A2A2A2A2A0D0AEA
:1011E0000A00000070B4090601F0706141EA007065
:1011F000094C25682668110501F47001084319049B
:1012000001F47021084346F47F0604492660086013
:10121000256070BC704700BF00F00140448004406E
:1012200080B500F007F8084801884FF6FE721140BB
:10123000018001BD054872B64CF2205101804DF687
:101240002811018062B67047002005400E2005403D
:1012500010B5074979441831064C7C44163404E033
:101260000A68081D511888470146A142F8D110BDEF
:1012700008000000140000004BFDFFFF28000000E4
:101280009404FF1F000000000120C046002801D088
:10129000FFF7DEFF002000F002F800F008F880B54C
:1012A0000123012211210220FFF708FFFEE700F0D1
:1012B00001B800000746384600F002F8FBE70000DE
:1012C00080B5C046C046024A11001820ABBEFBE7FD
:1012D0002600020080B5FFF7A3FFFFF783FEFFF7AC
:1012E0003FFFFFF7DCFFFEE7C046C046C046C046F2
:0C12F000FFF7CAFF01460120FFF7CEBC4B
:04000005000012E9FC
:00000001FF
