:10000000F8FF0020110400000B2D00000B2D000054
:100010000B2D00000B2D00000B2D00000B2D000000
:100020000B2D00000B2D00000B2D00000B2D0000F0
:100030000B2D00000B2D00000B2D00000B2D0000E0
:100040000B2D00000B2D00000B2D00000B2D0000D0
:10040000FFFFFFFFFFFFFFFFFFFFFFFFFEFFFFFFFD
:1004100062B605F06DF8FEE730B403000C0015007D
:100420006A1E002D04D025781D70641C5B1CF6E745
:1004300030BC704710B403001400621E002C02D0C0
:1004400019705B1CF8E710BC704770B403001C0007
:100450000D0000201600721E002E06D020782E7887
:10046000801B6D1C641C0028F4D070BC704790F990
:100470000020002A05D090F900208A4201D0401CBB
:10048000F5E790F900007047F8B504000D00E06A48
:100490000600AE4232D02079002821D0012332005C
:1004A00014F13001607801F031FE002801D0012004
:1004B00025E000202071206AE169081886420FD2E9
:1004C000E0780700FFB2022F0ADBE06986190123FA
:1004D000320014F13001607801F018FE7F1EF1E760
:1004E000002D0BD001232A0014F13001607801F0B7
:1004F00079FD002801D0012001E0E5620020F2BD75
:1005000038B5040000212000FFF7BEFF05006DB2E2
:10051000002D5ED12078032852D1607900284FD079
:100520000020E0624FF40072002114F13000FFF768
:1005300081FF552084F82E02AA2084F82F02522031
:1005400084F83000522084F83100612084F83200B1
:10055000412084F83300722084F81402722084F859
:100560001502412084F81602612084F817022069E0
:1005700084F81802206980B2000A84F81902206900
:10058000000C84F81A022069000E84F81B02E0684F
:1005900084F81C02E06880B2000A84F81D02E0685A
:1005A000000C84F81E02E068000E84F81F0201238C
:1005B000626914F13001607801F0A8FD00206071DB
:1005C00000220021607801F043FE002801D00120C4
:1005D0000500280040B232BD0200891E9069801ECD
:1005E000814201D3002003E09078926A00FB012051
:1005F00070472DE9F04104000D00022D02D3A069DF
:10060000854201D3012071E02078012804D06BD30A
:1006100003284AD031D367E0A84618EB5808206A6F
:1006200010EB58212000FFF72FFF00285CD14FF47A
:100630000070B8FBF0F101FB1081081990F8300050
:10064000060018F10108206A10EB58212000FFF77E
:100650001BFF002848D14FF40070B8FBF0F101FBFC
:100660001081081990F8300056EA0026E80701D5F5
:10067000300901E03005000D38E0206A10EB15214B
:100680002000FFF701FF00282ED168004FF4007111
:10069000B0FBF1F202FB110210193030070078783C
:1006A000397851EA002080B220E0206A10EBD511A1
:1006B0002000FFF7E9FE002816D1A8004FF40071D2
:1006C000B0FBF1F202FB1102101930300700F8788C
:1006D000B978090451EA0060797850EA0120397844
:1006E00008430001000901E05FF0FF30BDE8F08140
:1006F0002DE9F84304000D001600022D02D3A06975
:10070000854202D302208146A0E02078012805D04E
:10071000C0F0988003286BD04CD393E02F0017EBE8
:100720005707206A10EB57212000FFF7ADFE8146E6
:100730004FFA89F9B9F1000F40F086804FF400704C
:10074000B7FBF0F101FB1071081930308046E80763
:1007500006D598F8000010F00F0050EA061000E0EF
:10076000300088F800007F1C01202071206A10EB07
:1007700057212000FFF788FE81464FFA89F9B9F129
:10078000000F61D14FF40070B7FBF0F101FB107165
:10079000081930308046E80701D5300907E098F89D
:1007A000000010F0F000310A11F00F01084388F842
:1007B000000049E0206A10EB15212000FFF764FEDD
:1007C00081464FFA89F9B9F1000F3DD168004FF425
:1007D0000071B0FBF1F202FB1102101930308046BB
:1007E00088F80060300080B2000A88F801002BE031
:1007F000206A10EBD5112000FFF746FE81464FFA24
:1008000089F9B9F1000F1FD1A8004FF40071B0FBB6
:10081000F1F202FB110210193030804698F8030003
:10082000000610F07040064388F80060300080B287
:10083000000A88F80100300C88F80200300E88F8B1
:10084000030001E00220814601202071484640B2A9
:10085000BDE8F283F8B504000D00022D02D3A069B3
:10086000854202D3022006002AE000200600A0698B
:10087000854225D229002000FFF7BBFE0700002F8C
:100880001ED0012F02D10220060019E017F1010F3E
:1008900002D10120060013E0002229002000FFF70A
:1008A00027FF060076B2002E0AD1206910F1010F51
:1008B00004D02069401C2061012060713D00D6E712
:1008C000300040B2F2BD2DE9F84304000D00002DC8
:1008D0000AD1E0688046B8F1000F02D0A0698045D7
:1008E00011D3012080460EE029002000FFF781FE91
:1008F0000600022E01D2012051E0A069864201D2F9
:1009000030004CE0A84647467F1CA069874205D3CB
:1009100002200700B84501D2002040E03900200045
:10092000FFF767FE0600002E0CD17FF07042390001
:100930002000FFF7DDFE81464FFA89F9B9F1000F7B
:1009400013D10AE016F1010F01D0012E01D13000C0
:1009500025E04745D8D1002021E0002D05D03A0000
:1009600029002000FFF7C4FE81464FFA89F9B9F14A
:10097000000F0AD1E760206910F1010F0ED0206945
:10098000401E20610120607108E04FFA89F9B9F139
:10099000010F02D15FF0FF3700E001273800BDE80A
:1009A000F283F8B504000D00E580A0680600012E72
:1009B00003D020688069864201D302204BE0002EDC
:1009C00006D120680078032802D12068406A06001A
:1009D000002E0ED1E66020680089ADB2854201D3B9
:1009E000022038E02068406AADB210EB151020619B
:1009F00025E02068807880B200010700ADB2BFB268
:100A0000BD4213D331002068FFF7F3FD060016F155
:100A1000010F01D101201EE0022E03D3206880695E
:100A2000864201D3022016E0ED1BE7E7E6603100C5
:100A30002068FFF7D1FDADB210EB15102061ADB20B
:100A40001020B5FBF0F101FB1051206810EB4110B4
:100A5000303060610020F2BD2DE9F04104000F004C
:100A6000E088401C0600B6B2002E02D020690028A3
:100A700001D104208EE0B6B21020B6FBF0F101FBEC
:100A80001061002979D12069401C2061E0680028AC
:100A900006D120680089B6B286426ED3042079E080
:100AA000B6B220688078401E10EA161F65D1E16852
:100AB0002068FFF79EFD0500022D01D2022069E0AB
:100AC00015F1010F01D1012064E0206880698542A1
:100AD0004DD3002F01D104205CE0E1682068FFF7CE
:100AE000F2FE0500002D01D1072053E0012D01D1B8
:100AF00002204FE015F1010F01D101204AE0002151
:100B00002068FFF7C1FC002801D0012042E04FF42B
:100B10000072002120683030FFF78CFC290020682B
:100B2000FFF75AFD2168C86200208046206880785F
:100B30005FFA88F8804512D22068012101710021F6
:100B40002068FFF7A1FC002801D0012022E02068E6
:100B5000C06A401C2168C86218F10108E6E72068F5
:100B6000C06A5FFA88F8B0EB08002168C862E560E7
:100B700029002068FFF730FD2061E680B6B2102022
:100B8000B6FBF0F101FB1061206810EB4110303032
:100B900060610020BDE8F081F8B50400002120006C
:100BA000FFF7FFFE07007FB2002F02D0380040B2EF
:100BB00025E021692068FFF767FC07007FB2002F5E
:100BC0001BD16069060030780500EDB2002D02D11E
:100BD0000420070011E0F07A000706D40B22A16977
:100BE0003000FFF732FC002807D000212000FFF77B
:100BF00033FF07007FB2002FDBD0380040B2F2BDD8
:100C0000F8B5040000212000FFF7CBFE05006DB20F
:100C1000002D19D121692068FFF736FC05006DB25F
:100C2000002D11D1606900780600F6B2E52E02D0E1
:100C3000F6B2002E00D107E001212000FFF70CFFE3
:100C400005006DB2002DE5D06DB2002D16D12169E1
:100C50002068FFF719FC05006DB2002D0ED1606908
:100C60000700202200213800FFF7E4FB0B22A169D6
:100C70003800FFF7D1FB206801210171280040B244
:100C8000F2BD2DE9F34F81B00298006883469BF9CD
:100C900000002F2803D09BF900005C2802D11BF133
:100CA000010BF4E70198806907000B22202138002E
:100CB000FFF7C0FB00200400C0B282468146082036
:100CC000804619F80B00050019F10109EDB2212D3C
:100CD00005DBEDB22F2D02D0EDB25C2D07D119EB63
:100CE0000B0002990860EDB2212D61DA5EE0EDB2F1
:100CF0002E2D01D0C2450DD3B8F1080F02D1EDB2AF
:100D00002E2D01D0062072E0082082460B2080465E
:100D1000A400D6E7EDB2802D01DB54F00304EDB260
:100D2000812D22DBEDB2FF2D1FD019F80B0006003C
:100D300019F10109F6B2402E02DBF6B27F2E05DB77
:100D4000F6B2802E06DBF6B2FF2E03D0B8F101001A
:100D5000824501D306204AE00AF807501AF1010A39
:100D60000AF807601AF1010AABE7EDB22900DFF8D3
:100D70003406FFF77CFB002801D0062037E0EDB2F7
:100D8000412D05DBEDB25B2D02DA54F0020408E0E0
:100D9000EDB2612D05DBEDB27B2D02DA54F00104DA
:100DA000203D0AF807501AF1010A8AE7042500E0FD
:100DB0000025BAF1000F01D1062018E03878E528A7
:100DC00001D105203870B8F1080F00D1A400E4B2B9
:100DD00014F00300012801D155F01005E4B214F01D
:100DE0000C00042801D155F00805FD720020BDE873
:100DF000FE8FF2B50400009890F900002F2804D06F
:100E0000009890F900005C2802D10098401C0090E6
:100E10000020A060009890F90000202807D200214F
:100E20002000FFF7BEFD05000020606131E000A951
:100E30002000FFF726FF05006DB2002D29D120000C
:100E4000FFF7AAFE0500A069C07A07006DB2002D69
:100E500007D06DB2042D1CD1780701D40520050000
:100E600017E0780715D460690600F07AC00602D44E
:100E7000052005000DE0707D317D51EA002080B233
:100E8000F17EB27E52EA012189B251EA0040A060AF
:100E9000CDE7280040B2F2BD38B504000D000123B3
:100EA0002A0014F13001607801F09CF8002801D08C
:100EB00003202DE094F82F0294F82E1251EA00201E
:100EC00080B24AF65521884201D0022020E094F8F1
:100ED000680094F86710090251EA004094F866101F
:100EE0000843DFF8C414884201D1002010E094F8D0
:100EF000840094F88310090251EA004094F88210AB
:100F00000843DFF8A414884201D1002000E001204A
:100F100032BD2DE9F74F86B00698D0F8009099F9C8
:100F200000003038019001980A2809D299F901008F
:100F30003A2805D119F102090698C0F8009001E09D
:100F4000002001900198002801D00B20F7E10198C2
:100F5000DFF8581451F82000824607990860BAF16A
:100F6000000F01D10C20EAE19AF80000002815D00A
:100F70009AF8010001F0C4F98DF800009DF8000016
:100F8000C0070BD49DF82000002805D09DF8000074
:100F9000400701D50A20D2E10020D0E100208AF8E4
:100FA000000001988AF801009AF8010000F09CFE08
:100FB0008DF800009DF80000C00701D50320BEE1B8
:100FC0009DF82000002805D09DF80000400701D5BD
:100FD0000A20B4E100218B465046FFF75DFF040074
:100FE000E4B2012C23D100200600F6B2002E00D07E
:100FF000761EF6B21AEB061000F2EE10029002987E
:101000000079002813D00298C07A0299897A0904DD
:1010100051EA00600299497A50EA01200299097A5E
:101020000843834659465046FFF736FF0400E4B2B2
:10103000032C01D1012082E1E4B2002C01D00D206B
:101040007DE19AF83C009AF83B1051EA002080B20A
:10105000B0F5007F01D00D2071E19AF847009AF8B1
:10106000461051EA002080B20700002F0ED19AF8F6
:1010700057009AF85610090451EA00609AF8551082
:1010800050EA01209AF8541008430700CAF81C706F
:101090009AF8400005008AF80300EDB2012D04D053
:1010A000EDB2022D01D00D2049E1EDB26F439AF867
:1010B0003D0005008AF80200EDB2002D04D0691E43
:1010C0002800C0B2084201D00D2038E19AF8420051
:1010D0009AF8411051EA0020AAF80800BAF808006E
:1010E0001021B0FBF1F202FB1102002A01D00D2009
:1010F00025E19AF844009AF8431051EA002080B2A2
:101100000490049800280ED19AF853009AF85210CF
:10111000090451EA00609AF8511050EA01209AF847
:101120005010084304909AF83F009AF83E1051EA94
:101130000020ADF80200BDF80200002801D10D200A
:10114000FDE0BDF8020017FA80F0BAF8081010EBC5
:101150001110059004980599884201D20D20EEE007
:1011600004980599401A9AF80210B0FBF1F0039028
:101170000398002801D10D20E1E00120040003982C
:1011800040F6F671884201D30220040003984FF61E
:10119000F671884201D3032004000398801CCAF82A
:1011A0001800059810EB0B00CAF82800BDF80200E3
:1011B0001BFA80F0CAF82000E4B2032C1AD1BAF866
:1011C0000800002801D00D20B9E09AF85F009AF8D5
:1011D0005E10090451EA00609AF85D1050EA01209F
:1011E0009AF85C100843CAF82400DAF81800800066
:1011F00080461CE0BAF80800002801D10D209EE0CE
:10120000DAF820003818CAF82400E4B2022C04D11D
:10121000DAF818005FEA400809E0DAF8180003215C
:1012200048439AF8181011F0010111EB5008DAF850
:101230001C0008F2FF11B0EB512F01D20D207EE00F
:101240005FF0FF30CAF810000020CAF80C00E4B2CA
:10125000032C64D100208AF805009AF861009AF8FE
:10126000601051EA00201BFA80F0CAF81400012334
:10127000DAF814201AF130019AF8010000F0B2FEF9
:1012800000284CD19AF82F029AF82E1251EA002029
:1012900080B24AF65521884241D19AF833009AF833
:1012A0003210090451EA00609AF8311050EA012026
:1012B0009AF8301008433E49884230D19AF8170214
:1012C0009AF81612090451EA00609AF8151250EAC9
:1012D00001209AF814120843364988421FD19AF81F
:1012E0001F029AF81E12090451EA00609AF81D12B2
:1012F00050EA01209AF81C120843CAF80C009AF828
:101300001B029AF81A12090451EA00609AF819129D
:1013100050EA01209AF818120843CAF810008AF817
:10132000004025480088401C23490880AAF8060090
:101330000020CAF82C0000208AF80400002009B020
:10134000BDE8F08F38B504000D00002C06D02078E1
:10135000002803D0E088ADB2A84201D0092007E000
:10136000607800F0CDFFC00701D5032000E0002029
:1013700032BD0200D2B2002A01D00B2011E0D2B25D
:101380000A4850F822000300002B01D000201870FA
:10139000002901D000200870D2B2044840F8221081
:1013A00000207047385B000046415400E8090014F3
:1013B0005252614172724161480A00142DE9F243B0
:1013C0008AB0040017000020206017F01F0717F0F4
:1013D000FE0200A90AA8FFF79CFD050007A80690D9
:1013E0006DB2002D04D10A9900A8FFF702FD050097
:1013F000059806006DB2002D03D1002E01D1062004
:1014000005001C20074267D06DB2002D0BD06DB2D5
:10141000042D03D100A8FFF7F3FB050057F00807E0
:10142000059806000AE0F07A1121084202D0072050
:10143000050003E0780701D5082005006DB2002DF6
:101440005AD1380758D500F071FF804686F80E80D3
:10145000404680B2000AF0735FEA184030745FEAD9
:10146000186070740020F0720020307700207077D0
:101470000020B0770020F077707D317D51EA0020A8
:1014800080B2F17EB27E52EA012189B251EA004077
:1014900081460020B0760020F076002030750020D4
:1014A0007075009801210171B9F1000F24D00098E6
:1014B000C06A804649460098FFF7CCF905006DB236
:1014C000002D19D10098B9F10101C1604146009881
:1014D000FEF7DAFF05000FE06DB2002D0CD1F07AB7
:1014E000C00602D50420050006E0B80704D5F07A4E
:1014F000C00701D5072005006DB2002D07D13807C0
:1015000001D557F020070098C06AE06126626DB2ED
:10151000002D21D1A771707D317D51EA002080B26C
:10152000F17EB27E52EA012189B251EA0040206187
:10153000F07FB17F090451EA0060717F50EA012019
:10154000317F0843E0600020A0600020A061009887
:1015500020600098C088A080280040B20BB0BDE891
:10156000F0832DE9FA4F83B004001500DDF80CB0CC
:10157000049800210160A1882068FFF7E3FE8DF840
:1015800004009DF90400002802D09DF90400E8E061
:10159000A079000601D50220E3E0A079C00701D4BC
:1015A0000720DEE0E068A168401A00900098A84299
:1015B00001D200980500002D00F0D280A0684FF401
:1015C0000071B0FBF1F202FB1102002A40F09E8094
:1015D000A068400A21688978491E084082465FFA5F
:1015E0008AFABAF1000F1CD1A068002802D1206944
:1015F000060004E061692068FEF7FBFF0600022E8A
:1016000005D2A07950F08000A0710220A9E016F167
:10161000010F05D1A07950F08000A0710120A0E059
:10162000666161692068FEF7D7FF0700002F05D1CA
:10163000A07950F08000A071022092E057FA8AF75A
:10164000680A8146B9F1000F35D02068807859FAD0
:101650008AF1884206D2206880785FFA8AFAB0EB75
:101660000A0081464B46DBB23A0059462068407872
:1016700000F0B8FC002805D0A07950F08000A071DF
:1016800001206EE0A07940060FD5A069C01B484537
:101690000BD24FF4007214F12401A069C01B4FF467
:1016A000007303FB00B0FEF7B7FE4FF4007000FBC1
:1016B00009F0804645E0A069B84226D0A0794006EE
:1016C00013D50123A26914F124012068407800F0A9
:1016D0001DFD002805D0A07950F08000A0710120E8
:1016E0003FE0A07910F0BF00A07101233A0014F18F
:1016F00024012068407800F075FC002805D0A0790E
:1017000050F08000A07101202BE0A761A0684FF489
:101710000071B0FBF1F202FB1102D2F500708046BD
:10172000454500D2A8464246A0684FF40071B0FB80
:10173000F1F303FB1103181910F124015846FEF7C9
:101740006BFE18EB0B0BA06818EB0000A060049870
:10175000006818EB000004990860B5EB08052AE75B
:10176000002005B0BDE8F08F2DE9FB4F0400150007
:10177000DDF804A0029800210160A1882068FFF72D
:10178000E1FD8DF800009DF90000002802D09DF9D0
:10179000000004E1A079000601D50220FFE0A07955
:1017A000800701D40720FAE0E0682818E168884241
:1017B00001D200200500002D00F0E680A0684FF463
:1017C0000071B0FBF1F202FB1102002A40F0AE8082
:1017D000A068400A21688978491E084083465FFA5C
:1017E0008BFBBBF1000F27D1A06800280AD120692C
:1017F0000600002E0BD100212068FFF764F80600D8
:10180000206104E061692068FFF75DF80600002EA2
:1018100000F0BA80012E05D1A07950F08000A071AF
:101820000220BCE016F1010F05D1A07950F0800034
:10183000A0710120B3E06661A079400613D50123B1
:10184000A26914F124012068407800F05FFC0028B0
:1018500005D0A07950F08000A07101209FE0A07910
:1018600010F0BF00A07161692068FEF7B5FE0700A7
:10187000002F05D1A07950F08000A07102208EE0E9
:1018800057FA8BF7680A8146B9F1000F36D0206805
:10189000807859FA8BF1884206D2206880785FFA06
:1018A0008BFBB0EB0B0081464B46DBB23A00514656
:1018B0002068407800F02AFC002805D0A07950F07C
:1018C0008000A07101206AE0A069C01B48450FD2CA
:1018D0004FF40072A069C01B4FF4007101FB00A11E
:1018E00014F12400FEF798FDA07910F0BF00A0715C
:1018F0004FF4007000FB09F0804636E0A069B84262
:1019000013D0A068E16888420FD201233A0014F195
:1019100024012068407800F065FB002805D0A079FC
:1019200050F08000A071012039E0A761A0684FF459
:101930000071B0FBF1F202FB1102D2F5007080469B
:10194000454500D2A84642465146A0684FF4007370
:10195000B0FBF3FC0CFB130C1CEB04002430FEF773
:101960005BFDA07950F04000A07118EB0A0AA06856
:1019700018EB0000A0600298006818EB00000299C4
:101980000860B5EB080516E7E068A168884201D257
:10199000A068E060A07950F02000A0710020BDE8B0
:1019A000FE8FF8B50400A1882068FFF7CBFC050086
:1019B0006DB2002D54D1A079800651D5A079400692
:1019C0000FD50123A26914F124012068407800F0AA
:1019D0009DFB002801D0012044E0A07910F0BF0059
:1019E000A071E1692068FEF74FFD05006DB2002D82
:1019F00036D1206A0700F87A50F02000F872E068CB
:101A00003877E06880B2000A7877E068000CB87731
:101A1000E068000EF8772069B876206980B2000A85
:101A2000F8762069000C38752069000C80B2000A35
:101A3000787500F07BFC0600BE75300080B2000AAD
:101A4000F875300C3876300E7876A07910F0DF001B
:101A5000A0712068012101712068FEF751FD050089
:101A6000280040B2F2BD38B504002000FFF799FF0E
:101A700005006DB2002D01D100202060280040B289
:101A800032BD2DE9F04704000D00A1882068FFF762
:101A900059FC060076B2002E02D0300040B2DBE0E6
:101AA000A079000601D50220D6E0E068A84204D261
:101AB000A079800701D4E0680500A0688246002074
:101AC0008146A060002D00F08680206880784FF469
:101AD000007148438046BAF1000F13D0BAF10100FB
:101AE000B0FBF8F0691EB1FBF8F181420AD3BAF1FC
:101AF0000100B8F101018843A060A0682D1A606957
:101B000007001BE020690700002F16D10021206884
:101B1000FEF7D9FE0700012F05D1A07950F0800013
:101B2000A071022098E017F1010F05D1A07950F0C3
:101B30008000A07101208FE027616761002F4AD0EB
:101B4000A8452DD2A079800708D539002068FEF776
:101B5000BAFE0700002F06D1454621E03900206873
:101B6000FEF747FD070017F1010F05D1A07950F0EE
:101B70008000A07101206FE0022F03D320688069EC
:101B8000874205D3A07950F08000A071022063E065
:101B90006761A06818EB0000A060B5EB0805CFE70F
:101BA000A0682818A0604FF40070B5FBF0F101FBAD
:101BB000105100290FD039002068FEF70DFD814635
:101BC000B9F1000F05D1A07950F08000A07102207A
:101BD00042E019EB5529A0684FF40071B0FBF1F217
:101BE00002FB1102002A2BD0A069814528D0A079E0
:101BF000400613D50123A26914F12401206840781E
:101C000000F084FA002805D0A07950F08000A0717F
:101C1000012021E0A07910F0BF00A07101234A4605
:101C200014F124012068407800F0DCF9002805D088
:101C3000A07950F08000A07101200DE0C4F8189048
:101C4000E068A168884205D2A068E060A07950F001
:101C50002000A071300040B2BDE8F0877CB50400E0
:101C60000D0064B20A2C03D129000D20FFF7F6FF06
:101C70008DF800400120060001AB320000A92800C9
:101C8000FFF772FD0198B04201D1012001E05FF041
:101C9000FF3076BD70B504000D000020060094F9F9
:101CA000000000280DD0290094F90000FFF7D6FFAE
:101CB00010F1010F02D15FF0FF3003E0641C761CCD
:101CC000EDE7300070BD50F8041B61B150F8042BF3
:101CD000D30744BFA9F101039A18002342F8043B3B
:101CE000091FFAD1EFE77047F0B589B00400E4B2FC
:101CF000002C01D0012035E1DFF8180600788007BC
:101D000003D5DFF8100600782CE1DFF8080600782C
:101D1000C00701D4002025E1DFF8FC050021416067
:101D2000DFF8F40500218160DFF8EC050021C160D7
:101D3000DFF8E40500210174DFF8DC0500214174BF
:101D40000021002000F090FC002801D0002009E1D3
:101D50000020009000A9022000F086FC002801D09D
:101D60000020FFE00098022808D00098032805D042
:101D70000098052802D0009806281DD10098032855
:101D800002D00098062803D1DFF88C0501210174E8
:101D900002208DF8040000208DF80500002002903C
:101DA00000208DF806000020039001A9012000F01A
:101DB0005BFC002802D103E00020D3E00020D1E04A
:101DC00003208DF8040000208DF80500002002900B
:101DD00000208DF806000020039001A9012000F0EA
:101DE00043FC002801D00020BCE00498000C000453
:101DF000DFF82415C86009208DF8040000208DF854
:101E00000500DFF81405C068029000208DF8060078
:101E10000020039001A9012000F026FC002801D039
:101E200000209FE0079810F4400F1ED10698C0F3E1
:101E3000032006009DF8180010F003000700059825
:101E4000800D50EA87270598C0F3C2100500781C62
:101E50000121AA1C9140484301213200093A9140D6
:101E60004843DFF8B41488600CE0DFF8AC040121CB
:101E700041740598C0F315200700781C8002DFF834
:101E80009814886007208DF8040000208DF8050064
:101E9000DFF88404C068029000208DF8060000205E
:101EA000039001A9012000F0DFFB002801D00020F1
:101EB00058E010208DF8040000208DF805004FF444
:101EC0000070029000208DF806000020039001A908
:101ED000012000F0C9FB002801D0002042E037209B
:101EE0008DF8040000208DF80500DFF82C04C06890
:101EF000029000208DF806000020039001A9012027
:101F000000F0B2FB002801D000202BE006208DF865
:101F1000040000208DF805000220029000208DF8BA
:101F200006000020039001A9012000F09DFB00287D
:101F300001D0002016E00120009000A9042000F04C
:101F400093FB002801D000200CE0DFF8C8030078E4
:101F500010F0FE00DFF8BC130870DFF8B80300785B
:101F600010F0030009B0F0BDF0B402001500DFF876
:101F7000AC0300688006FAD5DFF8A00320270760CD
:101F80000B00002B2BD0B3F5007F02D94FF4007665
:101F900000E01E00F01C80080400002C1DD0DFF8BB
:101FA0007C03006810F4E00F0BD0DFF870030068CA
:101FB00040F4E00050F02000DFF86073386000204B
:101FC0000EE0DFF85C0300680005FAD5DFF8540383
:101FD000006828602D1D641EDFE79B1BD1E70120F0
:101FE000F0BC7047F0B587B004000D0017001E006C
:101FF000E4B2002C02D1F6B2002E01D1042054E04C
:10200000C4480078C00701D503204EE0002D01D15F
:1020100004204AE0C048007C002802D14FF4007040
:102020004743F6B2012E1BD111208DF8000000208D
:102030008DF80100019701208DF80200F6B202969A
:1020400000A9012000F010FB002827D14FF40071F7
:102050002800FFF789FF002820D0002006001DE09F
:1020600012208DF8000000208DF80100019701205A
:102070008DF80200F6B2029600A9012000F0F4FAF1
:1020800000280BD1F6B24FF4007000FB06F12800D7
:10209000FFF76AFF002801D000200600F6B2002EEC
:1020A00001D0012000E0002040B207B0F0BD70B4C4
:1020B000020013000C00002C25D0B4F5007F02D9DB
:1020C0004FF4007500E02500641BE81C8508002D16
:1020D000F1D09248006810F4E00F0AD08F480068F1
:1020E00040F4E00050F010008C4E30605FF0FF30A4
:1020F0000AE08B4800684005FBD58A481E680660E8
:102100001B1D6D1EE3E7012070BC7047F0B587B062
:1021100004000D0017001E00E4B2002C02D1F6B23C
:10212000002E01D1042091E07A480078C00701D543
:1021300003208BE077480078400701D5022085E036
:10214000002D01D1042081E07348007C002802D1D9
:102150004FF400704743F6B2012E1BD118208DF8C2
:10216000000000208DF80100019700208DF802008A
:10217000F6B2029600A9012000F076FA00283CD1C0
:102180004FF400712800FFF792FF002835D000209F
:10219000060032E019208DF8000000208DF80100C3
:1021A000019700208DF80200F6B2029600A90120E6
:1021B00000F05AFA002820D1F6B24FF4007000FB6C
:1021C00006F12800FFF773FF002801D00020060069
:1021D000524800688007FBD55048006810F4E00FB3
:1021E00005D04E48006850F4E0004C4908604B4868
:1021F000006850F03200494908600D208DF8000059
:1022000000208DF801004448C068019000208DF83E
:1022100002000020029000A9012000F025FA002809
:1022200001D0012012E003983F49084201D001206B
:102230000CE0039810F4F850B0F5106FDDD1F6B251
:10224000002E01D0012000E0002040B207B0F0BD18
:10225000F0B587B004000D001600E4B2002C01D0E8
:1022600004204BE0012007002A480078C00701D570
:10227000032043E0EDB2002D05D0022D0CD005D394
:10228000032D0FD036E00020070035E0224880689B
:102290003060002007002FE04FF4007030800020F5
:1022A000070029E009208DF8000000208DF80100CA
:1022B0001948C068019000208DF8020000200290AB
:1022C00000A9012000F0D0F9002801D0012015E07C
:1022D000069810F4400F0AD10598C0F38640401CC0
:1022E0000699090A11F00301491E88403060002058
:1022F000070001E004200700380040B207B0F0BD3D
:102300000100C9B2002901D0012001E00148007894
:1023100070470000B0070014D409001430100B40BF
:1023200024100B4020100B400880D9FF002070477C
:1023300080B5DFF8BC0700210160DFF8B80700684E
:1023400050F40030DFF8AC170860DFF8AC07DFF8B6
:10235000AC170160DFF8A0070068C001FAD4DFF80D
:10236000A00700210160DFF89C075FF48131016064
:10237000DFF8940728210160DFF890075FF0011172
:102380000160DFF88C0700F04DF8DFF8880700687F
:1023900010F0030FF9D140F24341802000F0DEFB42
:1023A00040F24341812000F0D9FB4FF48861822044
:1023B00000F0D4FB40F24341832000F0CFFB40F219
:1023C0004341842000F0CAFB40F24341852000F0E5
:1023D000C5FBDFF844074FF6FF710160DFF83C07EB
:1023E000DFF83C170160DFF81007006850F000606C
:1023F000DFF804170860DFF8000700680001FAD46E
:10240000DFF810070068C00303D5DFF8E4060121F8
:102410000160DFF80407006850F08000DFF8F8166C
:10242000086001BDF0B580240F25DFF8F8763F681D
:102430004FF47A7C0CFB07F75FF0FF3C63465FF0DC
:10244000020C6146B1F5807F16D85FF0010C624640
:10245000112A0FD202FB01FC00FB0CFCBCEB070CA9
:102460006646002E04D49E4202D233000C001500B2
:10247000521CEDE74900E5E7DFF87CC6DCF800C058
:102480003CF0080CDFF870E6CEF800C0DFF868C654
:10249000DCF800C06FF3131C5FEAC41E1EF47F4E0D
:1024A0005EEA0C0CB5F1010E5FEA0E1E1EF0F00E96
:1024B0005EEA0C0C5CF4602CDFF83CE6CEF800C061
:1024C000DFF850C6DCF800C05FEA0C7CF8D5DFF816
:1024D00028C6DCF800C05CF0080CDFF81CE6CEF87B
:1024E00000C0DFF834C6DCF800C05CF4801CDFF804
:1024F00028E6CEF800C0F0BD70B504002078DFF803
:10250000281651F82000050015F1010F04D1F8211B
:10251000DFF8180600F08FFBDFF8FC05006850F0CC
:102520008000DFF8F4150860DFF8E8050068C007F0
:10253000FAD46068DFF8F815086035F44005607873
:10254000800510F4400005436078022801D155F45D
:102550000015A068002820D015F44030B0F5403FA9
:1025600001D055F40015A078002801D055F01005D1
:10257000A068022801D355F02005A06810F1010FD2
:1025800007D0A068000450F40070060055F0020562
:1025900005E0DFF8A005060001E000200600DFF8F6
:1025A00064050660DFF8900500210160DFF88C0506
:1025B0000560DFF864050068DFF884150842F8D08C
:1025C000DFF854050068DFF87815084001280BD0C3
:1025D000DFF84405006840F4702050F00100DFF897
:1025E0003815086003203EE0DFF82C05006800067F
:1025F00009D5DFF82405006850F00110DFF8181540
:10260000086002202FE0DFF810050068C00309D53C
:10261000DFF80405006850F00110DFF8FC140860D2
:10262000032020E015F4403F14D0DFF818050068BF
:10263000E06015F44030B0F5803F0BD1DFF80805BD
:1026400000682061DFF8040500686061DFF80005BC
:102650000068A061DFF8C004006850F00100DFF8F6
:10266000B8140860002070BD2DE9F34F89B0DDF883
:1026700028A0002081469DF9240000280AD00228C5
:1026800000F0FD81C0F08881042800F0B781C0F01F
:10269000928125E2FFF74CFE002004000020050097
:1026A0000020060000208DF81C000020804600203D
:1026B000070000208DF8000000208DF801000020A8
:1026C000019000208DF802000020029000A8FFF782
:1026D00013FF002802D00120814603E240F24C4063
:1026E00000F06CFB08208DF8000000208DF8010040
:1026F0004FF4D570019000208DF802000020029068
:1027000000A8FFF7F9FE8346BBF1000F08D103983C
:102710000199884202D001208146E3E101208046F0
:1027200001200700FFB2002F00F0FA8037208DF85B
:10273000000000208DF801000020019000208DF89D
:1027400002000020029000A8FFF7D6FE8346BBF1EE
:10275000010F02DB01208146C4E1BBF1000F6CD503
:1027600000200500002004000020804601208DF894
:10277000000000208DF80100DFF8D8030190002050
:102780008DF802000020029000A8FFF7B5FE002897
:1027900002D001208146A5E1039810F0C040B0F1BD
:1027A000005F01D1012080460120060027208DF81E
:1027B000000000208DF801004FF4406001900020DF
:1027C0008DF802000020029000A8FFF795FE002877
:1027D00002D00120814685E10398000ACE2801D16C
:1027E000012000E00020C0B2002800F099802720DE
:1027F0008DF8000000208DF801004FF4506001902A
:1028000000208DF802000020029000A8FFF774FE5F
:10281000002802D00120814664E10398000AAA281A
:1028200001D1012000E00020C0B2002878D00020B3
:10283000060001208DF81C0072E029208DF80000B0
:1028400000208DF801000020019000208DF802008A
:102850000020029000A8FFF74FFE002802D00120C0
:1028600081463FE1039810F4401F59D00020834671
:102870000A2000F0A3FA1BF1010B37208DF80000AD
:1028800000208DF801000020019000208DF802004A
:102890000020029000A8FFF72FFE002802D00120A0
:1028A000814623E029208DF8000000208DF80100EA
:1028B0005FFA88F8B8F1000F02D0A648019002E054
:1028C0005FF44010019000208DF80200002002907B
:1028D00000A8FFF711FE002802D00120814605E084
:1028E0000398002802D4BBF1640FC1DB4FFA89F9C9
:1028F000B9F1000F40F0F680BBF1640F02DB00205D
:1029000080460DE0012004005FFA88F8B8F1000F5E
:1029100006D0002080460398400001D50120804663
:10292000F6B2002E02D07248072101609DF81C000B
:10293000002802D06E4808210160EDB2002D02D0BF
:102940006B4804210160E4B2002C0AD068480221DF
:1029500001605FFA88F8B8F1000F02D064480321E3
:102960000160EDB2002D0DD0E4B2002C0AD0604819
:10297000052101605FFA88F8B8F1000F02D05C48C9
:10298000062101607448FFF74DFD5A48006850F475
:10299000003058490860A5E05046FFF7ADFD83467A
:1029A000BBF1010F01DB02208146BBF1000F01D515
:1029B0000320814696E0BAF1000F02D1052081463E
:1029C0001BE051480068C0F341008346BBF1000F93
:1029D00003D10020CAF800000FE0BBF1010F03D1C2
:1029E0000120CAF8000008E0BBF1100F03D102205B
:1029F000CAF8000001E00620814673E0BAF1000F3A
:102A000002D10520814639E04248006840F2073192
:102A1000084231D1DAF8000000280AD13A480068AB
:102A200030F00600384908603748374909680160C6
:102A300024E0DAF8000001280CD13348006830F0B7
:102A40000600314908603048006850F002002E4905
:102A5000086013E0DAF8000002280AD12A4800686A
:102A600030F00600284908602748274909680160B6
:102A700004E00620814601E00720814632E0BAF1F9
:102A8000000F02D10520814629E01B48006850F064
:102A9000006019490860184800680001FBD41E480E
:102AA0000068000608D51C48006850F080001A49EC
:102AB00008600F480021016016480068C00307D570
:102AC0000B480068002806D109480121016002E096
:102AD00007480021016006480068CAF8000001E0CC
:102AE00004208146484640B20BB0BDE8F08F00009C
:102AF000D4090014308004402C100B4000800001E9
:102B0000C0100B4004100B4028100B4044100B4029
:102B1000E093040024100B4030100B4034100B40A5
:102B2000B3007F00EC090014C05700009C5900005E
:102B300008100B400002FFFF00100B400C100B4070
:102B400001000E0010100B4014100B4018100B4029
:102B50001C100B400000304000366E0110B4294AB2
:102B600012684FF40073C0B24409A3401A43254BC6
:102B70001A60C0B24211244B53F82220012310F0F6
:102B80001F04A340C2F8A030C0B210F01F02C0B2B0
:102B900043111D4C54F8233043F8221010BC7047E9
:102BA00010B4184A12684FF40073C0B24409A3402D
:102BB0001A43144B1A60C0B24211134B53F822202F
:102BC000012310F01F04A340C2F8A03031F4E061EB
:102BD000C0B210F01F02C0B243110B4C54F82330A6
:102BE00053F8222012F4E0621143C0B210F01F0229
:102BF000C0B24311044C54F8233043F8221010BCE7
:102C0000704700003880044078070014DFF800F0B7
:102C10001D080014DFF800F039080014BFF34F8FCF
:102C20004648006810F4E06045490843434908609D
:102C3000BFF34F8FFEE738B504000D00002000F011
:102C4000C9F82A0021003F4800F0ECF8002000F00D
:102C5000DEF84FF47A7000F0B1F8F2E738B504000E
:102C60000D00210049B2032000F0F7F9200032BD29
:102C700010B50024042000F009FA042000F03CFA0A
:102C8000002841D1002000F0A5F8042000F034FA1B
:102C9000012801D101200400002000F0B8F82A48E2
:102CA00000F0C0F84FF4FA7000F088F8E4B2012C9C
:102CB000EBD1042000F020FA0028E6D1042000F037
:102CC0001BFA002806D1002000F0A1F8642000F0D3
:102CD00075F8F3E7042000F00FFA012806D1002070
:102CE00000F095F8322000F069F8F3E7174800F09B
:102CF00099F8FFF78BFF642000F060F80020FFF7E1
:102D000089FFFFF78BFFC0E710BD10B510480468BE
:102D1000012000F05FF8012000F079F8E4B20F2004
:102D20000C4900FB0412E4B221000B4800F07AF8D1
:102D30004FF47A7000F042F8EDE700000CED00E08F
:102D40000400FA054C5A0000FC5A0000805A0000AA
:102D500004ED00E0000000140059000030B4134CF2
:102D6000246854F08074114D2C60114C246854F088
:102D700001040F4D2C600F4C246821000E4C246878
:102D80004FF47A7594FBF5F404FB00F423005C180F
:102D900022008A4203D2074C2468A242FBD3054C8E
:102DA00024689442FBD330BC70470000FCED00E087
:102DB000001000E0041000E0EC09001410B504005D
:102DC0002000441E002804D04FF47A70FFF7C6FF9D
:102DD000F6E710BD10B5040064B2042C07DA012236
:102DE000012164B20E48205C00F09EF90EE0042040
:102DF00004002000441E40B2002807D00122012117
:102E000064B20748205C00F08FF9F2E710BD10B5FE
:102E1000040064B20248205C00F0DDF910BD00003F
:102E2000A40700140EB400B582B003A900910246B5
:102E300000AB0121034878440A3000F009FA06BCCF
:102E40005DF810FB952C00002DE9F84304000D00FF
:102E500064B2002C08D0022C2CD018D3042C4FD0F4
:102E60003BD3052C5FD071E0DFF80802006850F416
:102E70008060DFF8001208604FF440716620FFF7B1
:102E80006DFE4FF440716720FFF768FE5EE0DFF8EB
:102E9000E401006850F40060DFF8D81108604FF4D6
:102EA00040714320FFF75AFE4FF440714420FFF772
:102EB00055FE4BE0DFF8BC01006850F48050DFF8AD
:102EC000B41108604FF440716320FFF747FE4FF4E0
:102ED00040716220FFF742FE38E0DFF89801006899
:102EE00050F40050DFF88C1108604FF4407150200E
:102EF000FFF734FE4FF440715120FFF72FFE25E01D
:102F0000DFF87401006850F48060DFF86C1108602D
:102F10004FF440714E20FFF721FE4FF440714F20D7
:102F2000FFF71CFE12E0DFF85001006850F400606B
:102F3000DFF8441108604FF440718920FFF70EFE5E
:102F40004FF440718820FFF709FEFFE764B2DFF815
:102F50002C0150F82400C07810F0F30064B2DFF8C0
:102F60001C1151F82410C87064B2444850F8240071
:102F700064B2424951F824108978817064B2002CFF
:102F800002D064B2012C06D13D4800684FF47A713A
:102F90004843814605E03B4800684FF47A71484356
:102FA00081462801B9FBF0F00600B6B2B6F5005F25
:102FB00002DB41F6FF700600B9FBF5F0B6B2B0EBEC
:102FC00006100700BFB2202F04DB40F203112E4889
:102FD000FFF731FE64B2294850F82400007810F061
:102FE000E0008046B6B2300A10F01F0050EA080038
:102FF00064B2224951F82410087064B21F4850F896
:103000002400467064B21D4850F82400807A10F005
:10301000E000804664B2194850F8240017F01F0100
:1030200051EA0801817264B2144850F82400007C0F
:1030300050F0880064B2114951F82410087464B249
:103040000E4850F82400C07850F00C0064B20B49D0
:1030500051F82410C870BDE8F18340B2074A52F815
:10306000202012791206F8D540B2044A52F82020E6
:10307000D171704734800440288004408C070014CC
:10308000EC090014F4090014CC59000010B5040038
:1030900064B2082C0DDA0022002164B22148205CC1
:1030A00000F042F8032164B21E48205CFFF778FD6F
:1030B00014E0082004002000441E40B200280DD077
:1030C0000022002164B21748205C00F02DF8032193
:1030D00064B21448205CFFF763FDECE710BD10B547
:1030E000040064B20F48205C00F091F8002801D180
:1030F000002000E0012010BD10B50400200040B207
:10310000FFF7EDFF00280AD10A20FFF757FE200045
:1031100040B2FFF7E4FF002801D1002000E00120C9
:1031200010BD0000A807001470B504000D001600C3
:103130004FF480712000C0B2FFF710FD6DB2002D7A
:1031400011D1E4B26011404951F82000E4B261119C
:103150003D4A52F821104969012214F01F039A4098
:103160009143416136E0E4B26011374951F82000E3
:10317000E4B26111344A52F821104969012214F075
:103180001F039A4011434161F6B2002E11D1E4B2FF
:1031900060112D4951F820000068012114F01F0230
:1031A00091408843E4B26111274A52F82110086027
:1031B00010E0E4B26011244951F8200000680121B8
:1031C00014F01F0291400843E4B261111E4A52F804
:1031D0002110086070BD10B50400E4B260111A49F6
:1031E00051F82000406914F01F01C840C00703D403
:1031F0007B211648FFF71FFDE4B26011124951F818
:103200002000012114F01F029140C16010BD10B5D3
:103210000400E4B260110C4951F82000406914F038
:103220001F01C840C00703D58C210848FFF703FDE4
:10323000E4B26011044951F82000006914F01F0144
:10324000C84010F0010010BD080700146C590000C0
:103250002DE9F04FA1B0824602AE002017461D4670
:10326000029170620DF144080AE017F8011B029800
:10327000D0470290002800F08782706A401C70627C
:10328000387808B9706A81E22528EED10020F06014
:1032900030617061B061F061306201E040F00100C6
:1032A00017F8011F2029F9D023290DD02B2904D08C
:1032B0002D2906D030290AD00CE040F0020080B25F
:1032C000EEE740F00400FAE740F00800F7E740F0CE
:1032D0001000F4E72A290DD129680A1D2A6009681F
:1032E000F162002904D5494240F00400F16280B245
:1032F0007F1C13E00021F1620BE0F16A6FF00043E4
:10330000994205D001EB810302EB43013039F162B0
:103310007F1C3A78A2F130010A29EED339782E29A0
:1033200003D04FF0FF31B1621EE017F8011F2A29C8
:1033300006D129680A1D2A607F1C0968B16213E062
:103340000021B1620BE0B16A6FF00043994205D0F1
:1033500001EB810302EB43013039B1627F1C3A7803
:10336000A2F130010A29EED330860FF648203978D1
:1033700000F02EFD08B117F8010B8DF83A009DF80A
:103380003A00682802BF39786829622005D06C2885
:1033900004BF38786C2803D171208DF83A007F1C67
:1033A00011A8B0603978B1F125001FD0203802286B
:1033B0006CD9133800F095800B3800F02B81401E3B
:1033C00000F0D480401E022860D9001F00F0CE809B
:1033D000401F30D0401E00F08480401E20D0C01E10
:1033E00009D0801E7DD0C01E7BD01BE1F068411C3F
:1033F000F160252120E12868011D29600068B26A7A
:103400007060002A02D500F0EFFC07E0002100F018
:1034100007FD00281ABF7168401AB06A30610DE1DB
:103420002868011D296000210068CDE9000111A86C
:1034300070607821EAE09DF83A00622818D0682888
:1034400006D06A280BD06C2819D0712807D016E056
:103450002868011D29600068716A0180EEE02A6811
:10346000101D28601268706AC117C2E90001E5E00A
:103470002868011D29600068716A0170DEE0286813
:10348000011D29600068716A0160D7E02868C01DCD
:1034900020F00700286000F108022A60D0E900232C
:1034A000CDE90023002B04D5F068421CF2602D22E8
:1034B0000DE0308E820704D5F068421CF2602B22AA
:1034C00005E0C00705D5F068421CF260202200F834
:1034D0000820F06811AA8018706000A800F008FAAF
:1034E000ACE09DF83A006C2808BF2A6811D071281A
:1034F00008BF2A6802D02A686A280AD1D21D22F0A1
:1035000007022A60144604F108022A60D4E9002365
:1035100003E0131D2B6000231268CDE90023682807
:1035200008BF92B207D0622808BFD2B203D0742875
:1035300018BF7A2802D10023CDE9002396F8300085
:1035400000075FD5DDE90023002B08BF002A59D012
:1035500041F02000782855D1F068302200F808208A
:10356000401C421CF26000F808104BE09DF83A0045
:1035700062280CD0682810D06A281AD06C2823D072
:10358000712816D074281FD07A280CD01CE0286827
:10359000021D2A6090F900201AE02868021D2A60A6
:1035A000B0F9002014E02868021D2A600023026898
:1035B0000FE02868C01D20F00700286000F1080215
:1035C0002A60D0E9002304E02868021D2A6002680E
:1035D000D317CDE90023002B04DAF068421CF26017
:1035E0002D220DE0308E820704D5F068421CF26077
:1035F0002B2205E0C00705D5F068421CF2602022AE
:1036000000F80820F06811AA8018706000A800F087
:10361000C0F813E0F068411CF16029680A1D2A60B7
:10362000096809E0F068421CF260252200F80820D1
:1036300021B1F068421CF26000F80810F06AF168ED
:10364000401AB169401A3169401AF169401A71692A
:10365000401A316AA0EB010996F830007F1C400740
:1036600010D420208DF84000002409E0012310AA86
:1036700000A9504600F086FB002840F08580641CBD
:103680004C45F3DBF4680DF1440B0AE01BF8011B19
:103690000298D0470290002876D0706A401C706271
:1036A000641E002CF2D130208DF840004FF0000B4A
:1036B000B46909E0012310AA00A9504600F062FB9A
:1036C000002861D10BF1010BA345F3DB3469D6F877
:1036D00004B00AE01BF8011B0298D04702900028B2
:1036E00052D0706A401C7062641E002CF2D13020EF
:1036F0008DF840004FF0000BF46909E0012310AA97
:1037000000A9504600F03EFB00283DD10BF1010B13
:10371000A345F3DB30697168746900EB010B09E0C4
:103720001BF8011B0298D047029068B3706A401CD6
:103730007062641E002CF3D130208DF840004FF0F1
:10374000000B346A08E0012310AA00A9504600F0DB
:1037500019FBC8B90BF1010BA345F4DB96F8300057
:1037600040077FF58DAD20208DF84000002400E05B
:10377000641C4C45BFF684AD012310AA00A9504635
:1037800000F000FB0028F3D04FF0FF3021B0BDE87F
:10379000F08F2DE9FA47064682B035690A466F2A4E
:1037A00008BF082705D041F02000782814BF0A2759
:1037B0001027D6E900013C2480468946642A18BFB8
:1037C000692A05D1002903DAD8F1000869EB490913
:1037D000B9F1000F08BFB8F1000F0CD1306B50B930
:1037E000082F3BD196F83800000737D530203B240E
:1037F00085F83B0032E0CDE90089FB174046494699
:103800003A4600F039FBB846A8FB0023DDE9008901
:10381000A8EB02023032A4F1010AD2B254463A2A8D
:1038200003DB9DF80830513B9A180AF805208046C2
:103830005FEA010908BFB8F1000F03D0F068611911
:103840008842D8D3082F09D196F83800000705D54B
:10385000605D302802D0641E30206055C4F13C0009
:10386000B0616119F160316B884207DA081A306281
:103870004FF6EF71308F0840308710E000290ED5E9
:1038800096F8381001F01401102908D1716B726993
:10389000891A326A891A081A0128A8BF306204B04E
:1038A000BDE8F0872DE9D04306460F4614464FF099
:1038B0000008DFF8389012E0E00707D542464B4693
:1038C0003046394600F050FB06460F46641040462D
:1038D000494642464B4600F047FB80468946002C4D
:1038E000EAD130463946BDE8D083000000002440CC
:1038F0002DE9F34F8BB0D0E90089006B01AF0028B0
:1039000002D50B98062106E004BF41F0200067288D
:1039100002D10B98012101630B984168C1F30A5051
:1039200040F2FF72904220D1080302BF0B9800685A
:1039300000280AD10B98032181619DF8300061387D
:103940001A2844D30FF2804109E00B9803218161CA
:103950009DF8300061381A2836D30FF264410B9875
:10396000C068032200F0D2FBEFE0012807DA0B98D1
:1039700000F007FC012802DB00230026DCE00B9AA4
:10398000526840F2FE3161F31E520B994A6040F2D8
:10399000FE31461A404649460022002300F012FC40
:1039A00038BF89F0004936B247F297507043414919
:1039B00090FBF1F636B2C6F10702012A0ADB404657
:1039C0004946FFF76FFF27E00FF2F031C7E70FF22C
:1039D000F431C4E757420024374DDFF8E0B09A468F
:1039E00012E0F80707D552465B462046294600F00C
:1039F000BBFA04460D467F105046594652465B4678
:103A000000F0B2FA82468B46002FEAD14046494682
:103A100022462B4600F0EEFB80469DF8300040F039
:103A200020058946662D0CBF06F10A0006200B9979
:103A3000096B4718142FA8BF132730208DF80400F6
:103A40000DF10504DFF878B0012F3BDB4046494615
:103A500000F0F4FC014604F1080204234FF00A0CC4
:103A6000B1FBFCFC0CEB8C04A1EB4401303102F8FF
:103A7000011D0A21BCFBF1FE0EEB8E04ACEB4404ED
:103A80003034714602F8014D5B1EE7D1083F02F168
:103A90000804012FD8DB00F0E7FC02460B46404645
:103AA000494600F0EFFC00225B4600F05DFA8046DC
:103AB0008946CBE7A08601000000F03F00002440CB
:103AC00084D797410DF10500201A0DF1050702E09A
:103AD000401E761E7F1C39783029F9D0662D02D120
:103AE00036B2711C03E0652D0CBF012100210B9A39
:103AF000126B8B181BB29842B8BF03461BB2190059
:103B00001AD4814204DAC85D3528A8BF392000DA0A
:103B10003020CA19521E00E05B1E12F80159491EDE
:103B20008542F9D0392802D1C85D401CC85500290A
:103B300002D57F1E5B1C761C36B29DF830100B98A8
:103B400000961BB23A4600F003F80DB0BDE8F08FC6
:103B50002DE9F04786B006468A4690461D4600F09D
:103B60006EFD406A376B90F80090012D02DA012556
:103B70000FF258284AF02000BDF93840662808BFE7
:103B8000641C13D0672840F0878014F1040F72DBA7
:103B9000BC4270DA96F83800641C000702D4BD42BB
:103BA000B8BF2F4624B23F1B48BF0027F068B16959
:103BB00024B2012C21DA30234A1C0B54012F03DAE2
:103BC00096F83810090702D502F80090521CB2612D
:103BD000E742B8BF7C4224B26142E7197162AF424A
:103BE000B8BF3D462DB2F5612A46B3694146181863
:103BF00000F08CFA781BB062ADE00818A54216DA26
:103C00002A46414600F082FAB1696918B161601B29
:103C10007062012F03DA96F83800000705D5F068C6
:103C200001F80090F069401CF061B76293E0224611
:103C3000414600F06BFAB06920182D1B012F03DA02
:103C400096F83810090703D5F16800F80190401C78
:103C50002DB2B061AF42B8BF3D46F3682DB22A46DF
:103C600004EB0801C01800F051FAB0692818B061DF
:103C7000781B70626FE0BD4204DA96F838100907CD
:103C800058BF2F467F1E48BF0027BAF1670F0CBFF1
:103C90004FF0650A4FF0450AB169F06818F8013B2A
:103CA0000B544A1C012F05DA96F83810090758BF43
:103CB000B26115D502F80090531CB361012F0FDBE0
:103CC0006D1E2DB2AF42B8BF3D462DB22A464146C9
:103CD000181800F01BFAB0692818B061781B7062E0
:103CE000B069F16800EB0108200008F801AB03D4CB
:103CF0002B2008F8010B03E02D2108F8011B44429A
:103D0000002502AF08E00A2200A800F0B1FC0198EB
:103D100007F8010B6D1C009C21B20129F3DA022D7A
:103D200006DA4AF02000652804BF302008F8010BAD
:103D30004DB9302008F8010B07E06D1E02A8285C81
:103D4000303008F8010B012DF7DAB069F16840183E
:103D5000A8EB0000F06196F8380000F0140010287D
:103D60000DD17069B1690818716A0818F1690818ED
:103D7000B16A0818716B8842BCBF081A306206B07D
:103D8000BDE8F087F8B504460D4616461F460020EC
:103D900004E0E86A401CE8627F1E002047B116F884
:103DA000011BA868A047A8600028F2D14FF0FF309F
:103DB000F2BD0000686A6C747A4C00006E616E009F
:103DC0004E414E00696E6600494E460030000000CC
:103DD0000278C9B28A421AB11CBF10F8012FF9E764
:103DE00018BF00207047000000F10103810704D0D4
:103DF00010F8011B89B18107FAD10268B2F10131D3
:103E0000914311F0803F04BF50F8042FF6E710F8FB
:103E1000011B11B110F8011BFBE7C01A704700002D
:103E2000C9B2830706D0521E22D310F8013B994233
:103E3000F7D11FE0083A13D302F1040241EA01214D
:103E400041EA014150F8043B121F21BF4B40A3F14E
:103E5000013C2CEA030C1CF0803FF3D0C9B2001FD8
:103E6000083210F8013B521E28BF91EA030FF8D820
:103E700018BF0120401E70471B4213D1094236D1A2
:103E80002AB18446B0FBF2F002FB10C2704700F08A
:103E9000F7BBFCD30022002370470B000200002177
:103EA00000207047904271EB030CF6D370B5B1FA65
:103EB00081F4B3FA83F52C1BA340C4F1200532FA38
:103EC00005F63343A2405FF00046E64002E05B089F
:103ED0005FEA3202841A71EB030524BF20462946AB
:103EE0007641F4D302000B003000002170BD012A9E
:103EF000CFD970B5140C20D0B1FA81F4B2FA82F5A2
:103F0000C4F120046419B4F12006D6D3B2405FF0A6
:103F10000044F440002502E052085FEA3303C61A69
:103F200071EB020E24BF3046714664416D41F3D3FC
:103F300002000B002000290070BD0C46B1FBF2F11D
:103F400002FB11452D0445EA1045B5FBF2F402FBD6
:103F5000145580B240EA0545B5FBF2F002FB105261
:103F600040EA044070BD0000B0B581EA030C0CF0DB
:103F7000004C40F2FF7515EA11541DBF15EA1357A6
:103F8000AC42AF4239E0E41923EA455343F48013CD
:103F9000C90241F0004141EA505EC7021100A7FB8F
:103FA000020200284FF00000EEFB01204FF000015C
:103FB000E3FB072118BF42F00102401800214941EC
:103FC000E3FB0E01A4F580640F0302D252004041CE
:103FD000494154F101046CDD470872F1004250F18F
:103FE000000051EB0451A1F580115CBF41EA0C01C6
:103FF000B0BD4CEA05510020B0BD05EA1357AC42F4
:1040000014BFAF4241E050EA410E1CBF52EA430EDA
:1040100002E061460020B0BD24423C441BD15FEA6F
:10402000070EF6D0090302BF01460020AEF1140EC0
:10403000B1FA81F7AEEB070401FA07FE0C37C7F1BE
:10404000200100FA07F7C8404EEA000E23EA455364
:1040500043F48013A2E733F00043B3FA83F704BFBD
:10406000B2FA82FE77440B3FE41BB7F1200E2FBF5C
:1040700002FA0EF3BB40C7F1200E22FA0EFE38BF43
:1040800043EA0E03BA40641C82E750EA410E14BFB3
:1040900052EA430E6FF000014FF4001717EB430F85
:1040A0008ABF194617EB410FB5E74CEA05510020CE
:1040B000B0BDD4F10104B4F120070FDAC4F1200738
:1040C000520828BF42F0010210FA07F501FA07F77B
:1040D000E1BF2A43E0403843E1400FE0352C98DC53
:1040E000C7F1200452EA400220FA07F218BF42F05A
:1040F000010231FA07F0A1400A43002172F10042A7
:1041000050F1000051EB0C01B0BD000062B38B0711
:1041100008D0521E11F8013B00F8013B00F024804A
:104120008B07F6D1830740F0208000BF103A07D3F9
:1041300030B4B1E83810103AA0E83810F9D230BCE9
:10414000530724BFB1E80810A0E8081044BF51F895
:10415000043B40F8043BD20724BF31F8022B20F87F
:10416000022B44BF0B7803707047083A07D3B1E8BD
:104170000810083A40F8043B40F804CBF7D2530744
:10418000E4E730B4436803F0004201211B031B0B3A
:10419000436004BF0368002B08D10DE00368DD0F06
:1041A00045EA440444605B000360491E4468E3023E
:1041B000F4D523031B0B436043681A43426008464F
:1041C00030BC70474FF4001C1CEB410F94BF1CEB3C
:1041D000430F09E041EA030C50EA4C0C52EA0C0C84
:1041E00003D2994208BF9042704714BF8B4282426B
:1041F00070470000F0B540F2FF7581EA030C0CF047
:10420000004C15EA11541DBF15EA1357AC42AF42DA
:10421000E5E0BC41C1F31301C3F31303801A9941D4
:1042200043F4801304D2641E400049418018594170
:10423000C90241EA5051B1FBF3F603FB1611A2FB90
:104240000675D7EBC020A94102D2761E80185941CD
:10425000C90241EA5051B1FBF3FE03FB1E11A2FB60
:104260000E75D7EBC020A94103D2AEF1010E801824
:104270005941890241EA9051760546EA8E2EB1FBFA
:10428000F3F603FB1611A2FB0675D7EB8020A941BC
:1042900002D2761E80185941C90241EA50514EEAB5
:1042A000060EB1FBF3F603FB1611A2FB0675D7EB66
:1042B000C020A94102D2761E80185941C90241EAA4
:1042C0005051B1FBF3F703FB1711A2FB0735D3EBFA
:1042D000C020A94167F100070CBF004247F0010769
:1042E00066F3D5274FEA1E31B80814F5806412DD55
:1042F000BD0775F1004250EB0E5051EB045111F522
:10430000801F5CBF41EA0C01F0BD4CF07F6141F0C1
:10431000E0410020F0BDBD076D0840EA0E5041F4B9
:104320008011D4F10104B4F120060ADAC4F12006A8
:104330000200E04001FA06F3E1401843B2401543A1
:104340000EE0342C13DCC6F1200445EA40056D086C
:1043500020FA06F2154321FA06F0A1400D43002190
:1043600075F1004250F1000051EB0C01F0BD00204E
:104370005FEA0C01F0BDCFB992185B41B3FA83F745
:1043800004BFB2FA82F6BF190B3FB7F120062FBF68
:1043900002FA06F3BB40C7F1200622FA06F638BF40
:1043A0003343BA401CB1E419641E33E77F4231F055
:1043B0000041B1FA81F404BFB0FA80F6A4190B3CB5
:1043C000B4F120062FBF00FA06F1A140C4F1200687
:1043D00020FA06F638BF3143A0403C1B1AE7AC4236
:1043E0001ABF05EA1357AF4212E050EA41061CBF5C
:1043F00052EA4306BFE750EA4107304661461CBF18
:1044000041EA0551F0BD52EA430C08BFC143F0BD7B
:1044100000204FF4001616EB410F98BF16EB430F28
:1044200008BF16EB410F24BFC14305E016EB430F55
:104430000CBF61464CEA0551F0BD0000400D40EA5A
:10444000C120490080F00D8040F00040490DA1F5E9
:104450008061491C05D4D1F11F0154BFC840C01769
:1044600070474FF000007047010000BF09D0B0FA5C
:1044700080F18840C91CC1F58461090501EBD02198
:104480004005704770B44FF0004591EA030F44BFF8
:104490006B4000F0F7B800BF841A71EB030604D23A
:1044A0006E40001BB141121973414FF4001C1CEB0C
:1044B000410F34BF7CEB430684E00C0DA4EB135694
:1044C000362E7DDC012E43DC45EAC32343EA5253FA
:1044D00012BFD20292025B08240545EAC12141EADB
:1044E0005051D2EBC020994125D407D1B0FA80F6C3
:1044F00010FA06F164D00020203608E0B1FA81F607
:10450000B140C6F1200220FA02F21143B0404FEA56
:10451000F474B4EB465434F001064FEA74040AD83C
:10452000D6F50016760D04F00044F04061FA06F26C
:104530005040F1404840C00A40EA415021F000415B
:1045400028BF5FEA500550F1000044EBD12137E06D
:1045500045EAC323DB0A45EAC121C90AB6F12005B1
:104560000EDD42EA0242120CC5F1200603FA06F6FD
:10457000EB4042EA06056D42984161F100010DE011
:1045800062FA06F5F240554063FA06FC82EA0C0234
:10459000F3405A406D42904161EB030111F4801FDA
:1045A00005D1641E620502D06D004041494121F4ED
:1045B0008011430875F1004350F1000041EB0451B4
:1045C00070BC70471CEB410F15D223F0004352EA38
:1045D00043060BD04FEA4C0CBCEB410F04D80C0D3A
:1045E000661E342EB7DDEBE7801A994150EA41068A
:1045F00008BF0021E4E708BF1CEB430F28BF6FF0A2
:104600000001DDE780B5134800F0A6F80FF248017D
:10461000016041608160C1600161416181610FF2AF
:104620003C0242628162C162016341630FF2300267
:1046300082630FF23402C2630164416401BD10B5AC
:10464000044800F089F80446206808B9FFF7DAFF4B
:10465000204610BD4C0A0014000000002E0000008F
:1046600066616C736500000074727565000000007F
:1046700091FBF2F303FB1211C0E900317047000017
:1046800070470000841A71EB030603D2001BB1418E
:10469000121973414FF4001C1CEB410F34BF7CEB2B
:1046A000430443E00C0DA4EB1356352E50DC45EAD1
:1046B000C323DB0A45EAC121C912B6F120050DDD8D
:1046C00063FA05F6EB4086EA0305124218BF45F08F
:1046D0000105C01851F100010CD213E062FA06F591
:1046E000F2405540F3415A40B340F3405A408018DD
:1046F000594107D349085FEA30005FEA350528BF12
:1047000045F0010501F58011420875F1004250F1B4
:10471000000041EB045170BC4FF4001C1CEB410F36
:1047200038BF70470020090D090570471CEB410F89
:1047300010D252EA43060BD0BCEB410F05D80C0D4A
:10474000AB43661E342EB5DD02E0AB438018594101
:1047500070BC704770BC70477047000000000000DC
:104760000000000000000000000000000000000049
:10477000000000000000000000004E6F6E4D6173ED
:104780006B61626C6500000000486172644661758F
:104790006C740000000000004D656D4D616E616736
:1047A000656D656E7400004275734661756C7400CA
:1047B00000000000000055736167654661756C7408
:1047C00000000000000000000000000000000000E9
:1047D00000000000000000000000000000000000D9
:1047E00000000000000000000000000000000000C9
:1047F00000000000000000000000000000000000B9
:1048000000535643616C6C00000000000000000083
:1048100044656275674D6F6E69746F7200000000C9
:1048200000000000000000000000000000005065D3
:104830006E645356000000000000000000537973BE
:104840005469636B0000000000000000444D4130DB
:104850000000000000000000000000444D41310055
:1048600000000000000000000000444D4132000044
:10487000000000000000000000444D413300000033
:104880000000000000000000444D41340000000022
:1048900000000000000000444D4135000000000011
:1048A000000000000000444D413600000000000000
:1048B0000000000000444D413700000000000000EF
:1048C00000000000444D41380000000000000000DE
:1048D000000000444D4139000000000000000000CD
:1048E0000000444D41313000000000000000000095
:1048F00000444D4131310000000000000000000084
:10490000444D41313200000000000000000000442E
:104910004D41313300000000000000000000444D14
:1049200041313400000000000000000000444D410F
:10493000313500000000000000000000444D415FE0
:104940004572726F720000000000004D434D000080
:10495000000000000000000000004654464C00002B
:10496000000000000000000000526561645F436FBA
:104970006C6C6973696F6E004C56445F4C565700FF
:10498000000000000000004C4C5700000000000038
:104990000000000000005761746368646F670000E6
:1049A0000000000000524E47000000000000000020
:1049B0000000000049324330000000000000000009
:1049C00000000049324331000000000000000000F8
:1049D00000005350493000000000000000000000BB
:1049E00000535049310000000000000000000000AA
:1049F0005350493200000000000000000000004356
:104A0000414E305F4F525F4D425F627566004341D9
:104A10004E305F4275735F4F666600000043414E43
:104A2000305F4572726F72000000000043414E30EB
:104A30005F54785F5761726E696E6743414E305FB5
:104A400052785F5761726E696E6743414E305F57AF
:104A5000616B655F55700000005265736572766525
:104A6000643531000000000052657365727665643C
:104A70003532000000000043414E315F4F525F4D20
:104A8000425F6275660043414E315F4275735F4F0E
:104A9000666600000043414E315F4572726F7200DE
:104AA0000000000043414E315F54785F5761726EE1
:104AB000696E6743414E315F52785F5761726E692C
:104AC0006E6743414E315F57616B655F5570000003
:104AD0000052657365727665643539000000000028
:104AE00052657365727665643630000000000055CB
:104AF000415254305F52585F5458000000005541F5
:104B00005254305F4552520000000000005541529F
:104B100054315F52585F54580000000055415254C0
:104B2000315F45525200000000000055415254329E
:104B30005F52585F54580000000055415254325F94
:104B400045525200000000000055415254335F525C
:104B5000585F54580000000055415254335F45528D
:104B60005200000000000055415254345F52585F1B
:104B700054580000000055415254345F45525200D1
:104B8000000000000055415254355F52585F5458A0
:104B90000000000055415254355F4552520000005C
:104BA000000000414443300000000000000000000D
:104BB00000004144433100000000000000000000FC
:104BC00000434D50300000000000000000000000D5
:104BD000434D503100000000000000000000004381
:104BE0004D5032000000000000000000000046545C
:104BF0004D30000000000000000000000046544D51
:104C000031000000000000000000000046544D325A
:104C10000000000000000000000000434D540000B0
:104C2000000000000000000000005254430000009B
:104C30000000000000000000005265736572766598
:104C40006438330000000000504954300000000078
:104C50000000000000000050495431000000000036
:104C60000000000000005049543200000000000025
:104C70000000000000504954330000000000000014
:104C8000000000005044423000000000000000001E
:104C900000000055534230000000000000000000FA
:104CA000000055534244434400000000000000004F
:104CB00000454E45545F313538385F54696D657233
:104CC000454E45545F5472616E736D6974000045C2
:104CD0004E45545F52656365697665000000454E38
:104CE00045545F4572726F720000000000493253F4
:104CF0003000000000000000000000005344484362
:104D000000000000000000000000004441433000AB
:104D1000000000000000000000004441433100009A
:104D20000000000000000000005453493000000063
:104D300000000000000000004D434700000000009C
:104D4000000000000000004C5054696D65720000C6
:104D500000000000000052657365727665643130B2
:104D60003200000000504F5254410000000000008B
:104D700000000000504F52544200000000000000AC
:104D8000000000504F52544300000000000000009B
:104D90000000504F5254440000000000000000008A
:104DA00000504F5254450000000000000000000079
:104DB00052657365727665643130380000000052C8
:104DC00065736572766564313039000000005265A4
:104DD000736572766564313130000000005265738E
:104DE000657276656431313100000000526573658B
:104DF000727665643131320000000052657365726D
:104E00007665643131330000000052657365727657
:104E10006564313134000000005265736572766557
:104E20006431313500000000526573657276656447
:104E30003131360000000052657365727665643169
:104E40003137000000005265736572766564313158
:104E5000380000000052657365727665643131393F
:104E60000000000000F00F4040F00F4080F00F40C5
:104E7000C0F00F4000F10F4066000A1D320007012C
:104E8000640007106E000406780004088200040A1B
:104E90008C00040C9600040EA0000410AA0004125A
:104EA000B4000414BE000416C8000418D200041A8A
:104EB000DC00041CE100041DE600041EEB00041FDE
:104EC000F4000317FA000318130101062C01021461
:104ED000000109080090044000A0044000B0044014
:104EE00000C0044000D0044000A0064000B00640CE
:104EF00000C0064000D0064000A00E4000B00E40AA
:104F0000343536376A6E6B6C676D4E4F01000000AA
:104F100002040101F8090014480A0014F8090014F9
:104F2000F8090014F8090014F1070014D807001458
:104F30000000000000000000000000000000000071
:104F40000000000000000000000000000000000061
:104F5000DFF800F08509001440B2DFF8981331F84B
:104F6000201040B20128C0F26B8140B2162880F2B6
:104F70006781DFF884230023137089B23D2904DAA6
:104F8000DFF874230023537078E089B2792904DABA
:104F9000DFF864230123537070E089B2B52904DA85
:104FA000DFF854230223537068E089B2F12904DA50
:104FB000DFF844230323537060E089B2B1F5967F94
:104FC00004DCDFF834230423537057E089B2B1F5D1
:104FD000B47F04DCDFF82023052353704EE089B250
:104FE000B1F5D27F04DCDFF810230623537045E0CF
:104FF00089B2B1F5F07F04DCDFF8FC22072353709F
:105000003CE089B2B1F5077F04DCDFF8EC2208232D
:10501000537033E089B2B1F5167F04DCDFF8D82293
:10502000092353702AE089B2B1F5257F03DCB24A27
:105030000A23537022E089B2B1F5347F03DCAE4A13
:105040000B2353701AE089B2B1F5437F03DCAA4AFF
:105050000C23537012E089B2B1F5527F03DCA64AEB
:105060000D2353700AE089B2B1F5617F03DCA24AD7
:105070000E23537002E0A04A0F23537089B21A29FD
:1050800003DA9D4A0023937069E089B2332903DA79
:10509000994A0123937062E089B24C2903DA964A57
:1050A000022393705BE089B2652903DA924A0323F5
:1050B000937054E089B27E2903DA8F4A04239370F7
:1050C0004DE089B2972903DA8B4A0523937046E0B5
:1050D00089B2B02903DA884A062393703FE089B287
:1050E000C92903DA844A0723937038E089B2E22998
:1050F00003DA814A0823937031E089B2FB2903DA8D
:105100007D4A092393702AE089B2B1F58A7F03DAD8
:10511000794A0A23937022E089B2B1F5967F03DCC5
:10512000754A0B2393701AE089B2B1F5A37F03DAB5
:10513000714A0C23937012E089B2B1F5AF7F03DCA2
:105140006D4A0D2393700AE089B2B1F5BC7F03DA92
:10515000694A0E23937002E0674A0F23937089B265
:105160001A2903DA644A0023D37069E089B233292B
:1051700003DA614A0123D37062E089B24C2903DA71
:105180005D4A0223D3705BE089B2652903DA5A4A8B
:105190000323D37054E089B27E2903DA564A0423EC
:1051A000D3704DE089B2972903DA534A0523D370AF
:1051B00046E089B2B02903DA4F4A0623D3703FE0B4
:1051C00089B2C92903DA4C4A0723D37038E089B27F
:1051D000E22903DA484A0823D37031E089B2FB2977
:1051E00003DA454A0923D3702AE089B2B1F58A7FF0
:1051F00003DA414A0A23D37022E089B2B1F5967FDF
:1052000003DC3D4A0B23D3701AE089B2B1F5A37FCA
:1052100003DA394A0C23D37012E089B2B1F5AF7FBB
:1052200003DC354A0D23D3700AE089B2B1F5BC7FA7
:1052300003DA314A0E23D37002E02F4A0F23D370D2
:10524000704710B50400200040B2FFF785FE2B48E0
:10525000007810F0FD00294908702848007850F0C7
:105260001000264908702648B821017025480078AA
:10527000C006FBD423480078C0F38100C0B20228E6
:10528000F8D11D48C3781C4882781B4841781A48D9
:105290000078FFF75DFE64B2164810EB840080785A
:1052A00010F007001849087064B2124810EB84002F
:1052B000C07810F01F0050F04000144908701148E9
:1052C00000788006FBD50F4800784006FBD50C48D7
:1052D000007810F03F000A4908700A480078C0F3CF
:1052E0008100C0B20328F8D164B2024830F824002B
:1052F000C0B210BD1C070014740700140140064022
:105300000040064006400640044006400540064076
:10531000DFF800F0372C00005248F02101705148AE
:1053200000780006FBD54F4800787121084201D073
:10533000002000E0012070474B48006850F4002036
:1053400049490860474800780006FBD54548F021E8
:105350000170704710B582B00400A4B24FF48050C1
:1053600000FB04F000904148092101709DF8020003
:105370003F4908709DF801003E4908703E489DF87D
:1053800000100170FFF7C8FF002801D100200EE0D7
:10539000A4B2002C0AD15FF0FF327FF001034FF47A
:1053A0008161200080B200F003F800E0012016BD0A
:1053B000F0B583B006000F0014001D00B6B24FF424
:1053C0008050BFB200FB06700190BFB2082097FB6F
:1053D000F0F101FB1071002903D0E9212748FFF704
:1053E00097FFBFB2B7F5805F03DDEB212348FFF7DE
:1053F0008FFF9DF806001E4908709DF805001D49A5
:1054000008701D489DF80410017000949DF8030079
:105410001B4908709DF802001A4908709DF80100A8
:105420001949087019489DF8001001700F480721AC
:10543000017000959DF80300154908709DF8020061
:10544000144908709DF801001349087013489DF82D
:1054500000100170FFF760FF002801D1002000E07C
:105460000120FEBD0000024004F0014007000240A0
:105470000600024005000240040002403C590000C2
:105480000B0002400A0002400900024008000240EE
:105490000F0002400E0002400D0002400C000240CE
:1054A000F0B4114E366834000F4E366856F47F065D
:1054B0000D4F3E600E0616F0706656EA0076170530
:1054C00017F470073E431F0417F470273E43074F3D
:1054D0003E6000263500EDB29D4201D26D1CFAE718
:1054E000014E3460F0BC704700F00140448004403D
:1054F00080B500F08FF800F025F800F005F8FDF712
:10550000B7FB00F0A7F8FEE780B50420FFF799FE8F
:1055100032490860314800684FF47A714843304995
:1055200008602F4800682F490968C1F30361491CCE
:10553000B0FBF1F02C4908605FF4E1310320FDF786
:1055400083FC01BD2DE9F8432848294988420DD044
:1055500000208046B8F5826F08D22448244951F8CB
:10556000281040F8281018F10108F3E71F4800F050
:10557000D1F8204807002048060020480400A01B5E
:1055800080464046B0F10108002804D030783870D9
:10559000761C7F1CF5E71A4881461A480500B5EBD2
:1055A000090080464046B0F10108002805D00020DF
:1055B00089F8000019F10109F4E713481349144A66
:1055C000531A98464346B3F10108002B04D00B78D8
:1055D0000370491C401CF5E7BDE8F183F009001495
:1055E000EC09001444800440F40900140000FF1F7B
:1055F00000000000000000145C470000504F000055
:10560000D40900144A0A0014F407001410530000CF
:10561000F054000080B500F008F80C4800884FF600
:10562000FE7108400949088001BDEFF3118072B690
:1056300007494CF220520A8005494DF628120A808B
:10564000C0B2002800D162B67047000000200540BB
:105650000E20054070B5ADF5986D264E64220021F0
:1056600001A800F06DF81AA90020FBF782FE1322B2
:105670002149A6A8FBF7A2FE0500012D03D11F4872
:10568000FDF7D0FB32E0002D19D11D48FDF7CAFB14
:105690003000FEF7A9FB01001A48FDF7C3FBA6A9DD
:1056A0003000FCF7F7FAA6A8FCF77BF9A9980400EC
:1056B00021001548FDF7B6FB652C06D303E013481F
:1056C000FDF7B0FB12E0642004000021A6A8FCF75F
:1056D000D8F900AB220001A9A6A8FBF742FF01A957
:1056E0000B48FDF79FFBA6A8FCF7BDF90DF5986DDB
:1056F00070BD00BFC0580000485B0000585B000050
:10570000685B0000105B0000245B0000885B000009
:10571000785B000010B504004FF4007094FBF0F1CA
:1057200001FB1041002903D01E210348FDF783FA35
:105730000248046010BD0000FC59000008ED00E0C4
:1057400070B504000D0016002A003100200000F0A2
:1057500003F8200070BD000062F30F2262F31F42C5
:10576000401810F0030308D0C91A1FD3DB0748BF45
:1057700000F8012D28BF20F8022D130030B4144684
:105780001546103928BF20E93C00FAD8490728BF40
:1057900020E90C0048BF40F8042D890028BF20F8FC
:1057A000022D48BF00F8012D30BC7047C91818BF42
:1057B00000F8012DCB0728BF00F8012D704700002D
:1057C00000000000000000010000090200001A03B0
:1057D000000000040000020500001A0600001B077C
:1057E00000001A08000009090000090A00001A0B4D
:1057F0000000DB0C00001A0DFFFFFFFF0000000F90
:1058000000001A1000001A1104001A12FFFFFFFF17
:1058100000001A14FFFFFFFF00001A1600001A17FD
:1058200000001A1804001A1900001A1A00001A1BA6
:1058300000001B1C00001B1D00001A1EFFFFFFFFC5
:1058400000001A2000001A2100001A2200001A236A
:1058500000001A2400001A2500001B260000022761
:1058600000001A280000022900001B2AFFFFFFFF8A
:10587000FFFFFFFFFFFFFFFFFFFFFFFFFFFFFFFF38
:10588000FFFFFFFFFFFFFFFFFFFFFFFF00001A33D7
:1058900000001A3400001A35FFFFFFFF00001A371E
:1058A00000001B38FFFFFFFFFFFFFFFFFFFFFFFFB1
:1058B00000001B3C00001B3DFFFFFFFFFFFFFFFF41
:1058C000B8D0D0BBC4FAD1A1D3C320C9BDCDE24B5F
:1058D000696E65746973BFAAB7A2B0E520A3A15E23
:1058E0005F5E0AC9BDCDE2B3F5D1A7313233C2DB69
:1058F000CCB33A7663616E3132332E636F6D000044
:105900000A2A2A2A2A64656661756C745F69737253
:1059100020656E7465726564206F6E2076656374B1
:105920006F722025642A2A2A2A2A0A0A2573204906
:105930006E74657272757074000000005C5C707348
:10594000665C486F6D655C4465736B746F705C5327
:105950004448435C436869705C7372635C4D4B36CA
:10596000305F666C6173682E630000005C5C70736E
:10597000665C486F6D655C4465736B746F705C53F7
:105980004448435C436869705C7372635C4D4B369A
:10599000305F6770696F2E63000000005C5C70739D
:1059A000665C486F6D655C4465736B746F705C53C7
:1059B0004448435C436869705C7372635C4D4B366A
:1059C000305F736468632E63000000005C5C70737A
:1059D000665C486F6D655C4465736B746F705C5397
:1059E0004448435C436869705C7372635C4D4B363A
:1059F000305F756172742E63000000005C5C707330
:105A0000665C486F6D655C4465736B746F705C5366
:105A10004448435C436869705C7372635C6D69738E
:105A2000632E630010B5074979441831064C7C4455
:105A3000163404E00A68081D511888470146A1423F
:105A4000F8D110BD2C0000003800000041737365D0
:105A50007274696F6E206661696C656420696E207E
:105A60002573206174206C696E652025640A00002E
:105A700057C2FFFF78000000D409001400000000A6
:105A80000ABDF8D0D0BDE2CBF8B2D9D7F7A3ACC7E6
:105A9000EBD6D8D0C2CBA2C8EBB9CCBCFE0000007C
:105AA00000F009F8002801D0FFF7BCFF0020FFF745
:105AB000D1FD00F002F80120704700F001B80000AD
:105AC0000746384600F002F8FBE7000001491820BD
:105AD000ABBEFBE72600020038B504460D4628465B
:105AE00000F006F8A84218BF0024204632BD00008E
:105AF0000149FDF7B3B800BFB40700140ABDF8C8E8
:105B0000EBCBC0D1ADBBB7B5C8B4FDA3A1000000BD
:105B10000AD7D6B7FBB4AEB3A4B6C8CEAA3A2564AA
:105B2000000000000ACEC4BCFEB4F3D0A1CEAAA3EC
:105B3000BA2564200A000000222A2B2C3A3B3C3D67
:105B40003E3F5B5D7C7F0000303A2F4669726544C2
:105B5000656D6F2E747874000AC3BBB2E5C8EB5351
:105B600044BFA83F3F0A00000ACEC4BCFEB4F2BF47
:105B7000AAB3C9B9A6200A00CEC4BCFEC4DAC8DDE7
:105B8000CEAAA3BA0A2573000AB7B5BBD8D6B5D238
:105B9000ECB3A300C046C046C046C046FFF780FF36
:105BA00000000000000000000000000000000000F5
:105BB000000000000000000000000000FFFFFFFFE9
:105BC000FFFFFFFF000000000000000000000000D9
:105BD00000000000000000000000000000000000C5
:105BE0000000000000000000FFFFFFFFFFFF0000BB
:105BF00000000000000000000000000000000000A5
:105C00000000000000000000000000000000000094
:105C10000000000000000000000000000000000084
:085C200000000000000000007C
:0400000500005B9507
:00000001FF
